S01E00006170702D626F6F746C6F616465722D737069666C6173682E733337B6
S31508000000000400207B1600085D1300085D13000835
S31508000010A70B090100000000010200530020000898
S3150800002004030000770E0008551100086003000855
S31508000030C106000871080008B1080008330700085F
S315080000405D070008CD090008D50700087A010000F9
S315080000500000000010B50446002000F059F824BB43
S31508000060002000F02AF950B9012000F026F930B92D
S31508000070052000F04DF840F2012000F075F9042043
S3150800008000F046F8012000F043F8BDE8104040F2C1
S31508000090032000F069B90FF2340000F0B1F900F05E
S315080000A0A4F940F2022000F05FF900F099F8040084
S315080000B0F1D00FF2200000F0A3F9204600F0ABF9CA
S315080000C001A000F09DF9F0E70D0A00000D0A4F6B3C
S315080000D00D0A00000D0A4552522000000020704704
S315080000E080B500F0E6F90121062000F0EFF90620B8
S315080000F000F01EFA0121072000F0E8F9072000F0B9
S315080001000BFA1748016821F01001016001BD0000D3
S31508000110052800D9704710B5DFE800F01721030F4E
S315080001201C17104C2088411E2180C0B9072000F0FA
S315080001300BFA42F21070208010BD072000F0F8F983
S31508000140BDE81040062000F0FFB9BDE810400620C3
S3150800015000F0E2B9BDE81040062000F0E9B910BD8C
S3150800016000BC0040B80C00200078704700210160F0
S315080001708180C18001817047F8B504460D46164650
S31508000180002710E02068803020600020E080802072
S315080001902081A088401CA080E088411CE1800019CD
S315080001A0807A78557F1CBFB2B7420CD2E088218985
S315080001B08842F1D3802204F10A01206800F058FB36
S315080001C00028DFD0F2BD0020F2BD0020704710B530
S315080001D0044600F077F92046BDE8104000F00AB959
S315080001E02DE9F043A5B000F0EBF800F06BF900F04C
S315080001F041F9012100A800F0DFFC404C04F180051C
S3150800020000206860A86000F0A9FA00280FBFE8601F
S315080002108168E9604088A4F8800000A800F090FD95
S31508000220070046D1BDF80420BDF8060000A940180D
S3150800023000F20A065FFA82F894F8800080070FD564
S31508000240E96869B1686808EB00024B1E22EA0307F1
S3150800025010B1A868B84203D2384600F0B7FBAF60C1
S3150800026042463146686800F023FB07000FD1424634
S315080002702146686800F0FCFA002000E0401C404572
S3150800028005DA015D825D9142F8D0832706E0686849
S3150800029040446860002FC0D01B2FBED00420FFF753
S315080002A037FF0121384600F0D3FC384625B0BDE8B3
S315080002B0F083172FF0D10020F8E770B5DAB00446BE
S315080002C036A8FFF753FF012000904FF402630C4A4B
S315080002D036A901A800F0CFFD0FF284050FF27406C7
S315080002E000F0F0F8002C14BF3246002201A9284677
S315080002F000F030FF5028F3D05AB070BD280C00200B
S315080003000804002080B501F000F8FFF7E9FE00F0C8
S31508000310D7F918B14FF4017000F026F800F0D2F8BA
S3150800032001F021F840F2011188421CBF40F2111178
S31508000330884207D040F2052188421CBF40F20321BB
S31508000340884201D1012000E00020FFF783FE00204B
S3150800035002BD0000B5160008F1160008690100087C
S3150800036079010008CB0100080D4930220A600D49C1
S315080003700A600D490A600D4910220A60010A08BF81
S3150800038000020B4908804FF20F004880BFF35F8FC9
S315080003900848002101604160074808490160704724
S315080003A03020004030C8004030C0004010D0004027
S315080003B0000000201C4000400CED00E00400FA0597
S315080003C080B54FF4E131012001F087F82648022173
S315080003D08160012101600920092100F077F8BDE854
S315080003E0044004210A2000F071B82048006840063D
S315080003F0FBD570471E49CA685207FCD50860704786
S3150800040010B5044603E014F8010BFFF7F3FF207854
S315080004100028F8D110BD10B5044620090A28ACBF3B
S3150800042037303030C0B2FFF7E5FF04F00F000A2876
S31508000430BDE81040ACBF37303030C0B2DAE70B4801
S31508000440006810F0020018BF0120704710B5044676
S31508000450FFF7F5FF20B1064800682070002010BDA0
S31508000460012010BD0000000054C8004048C80040E4
S315080004703CC8004080B500A8FFF7E8FF0028FAD07E
S3150800048001BD00001A480068C00702D442F6E060C1
S31508000490704745F6C050704780B5FFF7F3FF15491A
S315080004A0096801B9400802BD80B5FFF7EBFF4008AF
S315080004B002BD1148012181604EF6BE21416001212D
S315080004C0016070470D4901200860704710B50FF2AA
S315080004D03002830852F82320136800F003008000D6
S315080004E00F248440A34301FA00F01843106010BD9E
S315080004F01C4000402040004000600040086000406A
S3150800050000B0004004B0004000B4004004B400400D
S3150800051000B8004004B80040C108032907DA0121E1
S3150800052000F007029140C00880020F4A1150704738
S31508000530C108032907DA012100F007029140C00823
S3150800054080020A4A11507047C10803290ADA084A84
S3150800055002EB812101230A6800F0070003FA00F084
S31508000560504008607047000014B0004010B00040CA
S315080005700CB00040DFF83C144A685207FCD5086006
S315080005807047DFF8300441688907FCD50068C0B2B7
S31508000590704710B5044601E0FFF7F3FF2046441EF6
S315080005A0C0B20028F8D110BD10B504462002000ECE
S315080005B0FFF7E0FF2004000EFFF7DCFFE0B2BDE81E
S315080005C01040D7E780B501E080B5FF20FFF7D2FFDE
S315080005D0BDE80140D5E770B500F0BBF803259F20BC
S315080005E000E0FF20FFF7C6FF2846451EC0B20028D8
S315080005F0F7D1FFF7C6FFFFF7C4FF0546FFF7C1FFB0
S315080006000646FFF7BEFF08211F2D40EA0620216097
S315080006102BD0202D36D0C22D12D0EF2D45D143F246
S315080006201201401A06D0401E06D041F20101401AB6
S3150800063004D03AE0012070BD022070BD032070BDD1
S3150800064042F21201401A08D0801E08D0401E08D077
S315080006504FF4A461401A06D027E0042070BD052097
S3150800066070BD062070BD072070BD44F20141884266
S3150800067004D044F20151884202D016E0082070BD29
S31508000680092070BD42F21201401A06D0401E06D05B
S31508000690401E06D0401E06D007E00A2070BD0B207B
S315080006A070BD0C2070BD0D2070BD002070BD10B54A
S315080006B000F04FF80620FFF785FF0820206010BDE0
S315080006C010B5BD4C41F6491020600021BB48C160F9
S315080006D00161416010214160022101600F20012162
S315080006E0FFF7F4FEB6498020086042F2107000F069
S315080006F0D9FE08206061AB20FFF764FF082020615F
S315080007001E2000F0CFFEFFF766FF08B9862010BD51
S31508000710083802280BD2FFF7CAFF082060610120BB
S31508000720FFF750FF0020FFF74DFF0820206100204B
S3150800073010BD10B500F04EF80028FBD100F009F8FE
S31508000740B920FFF73FFF0820206080209D490860F8
S3150800075010BD9D4C082060607047000080B500F011
S3150800076039F80028FBD1FFF736FF401E0C282FD892
S31508000770DFE800F0070A0D101316191C1F2225289A
S315080007802B000FF2FC2002BD0FF20C3002BD0FF257
S31508000790203002BD0FF2303002BD0FF2443002BDE8
S315080007A00FF2543002BD0FF2683002BD0FF27830F6
S315080007B002BD0FF28C3002BD0FF29C3002BD0FF263
S315080007C0B03002BD0FF2C03002BD0FF2D43002BD08
S315080007D0002002BD10B5FFF7BCFF0520FFF7CAFED3
S315080007E0FF20FFF7C7FEFFF7CCFEFFF7CAFE08217A
S315080007F010F00100216018BF012010BD00000000A4
S3150800080010B50446FFF7E6FF0028FBD114B9FFF739
S31508000810E2FE04E0207810B9FFF7DDFE2070401EE6
S315080008200C2814D8DFE800F0070A0D070D10100A87
S315080008300D070A0D10004FF4802010BD4FF400205C
S3150800084010BD4FF4801010BD4FF4001010BD0020ED
S3150800085010BD10B50C18B4F5802F01D8012010BDB5
S315080008601046FFF7CDFFA0428041C043C00F10BD20
S31508000870F8B50D4600F082F808B98520F2BDFFF7F5
S31508000880A9FF0028FBD100F074F82046FFF78CFE7C
S3150800089000F06DF803E0FFF797FE05F8010B304608
S315080008A0461E80B20028F6D1082038600020F2BD26
S315080008B02DE9F84F894600F061F808B985202BE044
S315080008C0B046FFF787FF0028FBD100F052F8204614
S315080008D0FFF76AFE00F04BF84046A0F1010880B227
S315080008E028B1FFF771FEFF28F6D0872014E008200C
S315080008F038604FF48078200608D0200A000200F5F8
S3150800090080703119814204D3051B03E0B6F5807F58
S3150800091004DC35461EB90020BDE8F28F4546AB46D5
S31508000920CA46FFF757FF0028FBD1FFF7C0FE08208D
S3150800093078600220FFF71EFE2046FFF735FE00F01E
S3150800094016F803E01AF8010BFFF73CFE5846A0F12B
S31508000950010B80B20028F5D1761BADB22C19B6B2C0
S315080009600820B6F5807F3860A944D7DCD1E7042093
S315080009700FE6154F082078600320FBE51646044667
S315080009800022314665E770B504460D46FFF722FF9B
S315080009900028FBD1FFF78BFE0B4E0820706020461F
S315080009A0FFF7E8FD2846FFF7FFFDFFF7E0FF082001
S315080009B0306070BD3CC0004000B0004054C00040EC
S315080009C010B4004014B4004010B00040F8B5044616
S315080009D000208DF800000D4600A8FFF711FF074616
S315080009E09DF800000A3840F6FF76042838BF4FF60F
S315080009F0FF76354201D08220F2BD344201D08120F3
S31508000A00F2BD00AAA9B22046FFF723FF08B9852040
S31508000A10F2BDBCB9BD4215D1FFF7DCFE0028FBD1FB
S31508000A20FFF745FEFFF795FEC720FFF7CBFD082029
S31508000A30206022E021462020FFF7A5FF04F5805418
S31508000A40A5F58055CDB12004F4D1B5F5803F12D374
S31508000A502146D820FFF797FF05F17F4504F5803436
S31508000A6005F57F05F1E721462020FFF78CFF04F501
S31508000A708054A5F58055002DF5D10020F2BD000063
S31508000A80020103009A01000800100000000004009B
S31508000A904017000801000000020103009A01001037
S31508000AA000100000000008004C17000801000000B4
S31508000AB0020103009A01001800100000000010004F
S31508000AC05817000801000000020103009A01340FBC
S31508000AD00010000000000400641700080100000070
S31508000AE0020103009A01003C0010000000001000FB
S31508000AF07017000801000000020103009A0100783F
S31508000B0000100000000020007C170008010000000B
S31508000B10020103009A0100500010000000002000A6
S31508000B208817000801000000020103009A01001C52
S31508000B3000100000000008009417000801000000DB
S31508000B40020103009A010070001000000000100066
S31508000B50A01700080100000002010300000C00189D
S31508000B600000010000000400AC17000801000000A6
S31508000B7002010300000C0028000001000000080024
S31508000B80B41700080100000002010300000C005021
S31508000B900000010000001000BC170008010000005A
S31508000BA002010300000C00A0000001000000200064
S31508000BB0C41700080100000001700122427082700B
S31508000BC001290CBF8021402181800021C18001813B
S31508000BD01D4801600E218162016821F01001016043
S31508000BE00021416341627047F8B504460D46164632
S31508000BF016484FF0FF310160134FFE6200207862FD
S31508000C00386840F001003860FFF75CFC012C19D108
S31508000C106DB9FFF714FC78B9786AB042F4D3002EA0
S31508000C20F2D038684008400038601620F2BD2846E1
S31508000C30FFF70CFC0028EFD1386840084000386000
S31508000C400020F2BD0120F2BD00E0004000A80040EF
S31508000C5038B504460D4600F009F800F007F82A46AC
S31508000C6021461820BDE83840FFF7B1BA2A46214682
S31508000C701820FFF7ACBA30B583B0044600202081AF
S31508000C804AF6B43200A92078FFF7AEFF08B11C2057
S31508000C903EBD9DF80000032818BF182801D118206A
S31508000CA03EBD042801D117203EBD012801D02120D0
S31508000CB03EBD002500E06D1CEDB2A188091D8D42E0
S31508000CC00BDA40F2DD22281900F10A012078FFF735
S31508000CD08BFF0028EFD026203EBD0025002006E029
S31508000CE00146EDB22819007B00F036FC6D1CA18880
S31508000CF0EAB28A42F4D3A27AE37A9B18FF2B01D090
S31508000D0022203EBD0B191D7BB5EB102F01D02320E9
S31508000D103EBD5B7BC0B2834201D024203EBDA07895
S31508000D20824207D0401EC0B2824201D127203EBD72
S31508000D3025203EBD881C20810220E08000203EBD83
S31508000D4038B504466078012804D023D3032855D043
S31508000D5018D31FE02078012811D13B254320FFF73F
S31508000D6049FB40F2DD2200212078FFF73DFF30B134
S31508000D702846451EC0B20028F0D11B2032BD0220ED
S31508000D80607010E0FFF776FB00F03AF8A078401C98
S31508000D90A07008E0182032BD2278A078411EC9B29A
S31508000DA00620FFF714FA2046FFF765FF050018BF6F
S31508000DB0FFF760FB272DEFD0A8060BD52278A17880
S31508000DC01520FFF704FA002DEDD10320FFF7A0F94F
S31508000DD0002032BD680603D4182D18BF1C2D07D174
S31508000DE021782846FFF734FF04206070284632BD74
S31508000DF0172DE8D100F004F803206070172032BDE3
S31508000E002278A1780620FFF7E2B90000F8B5044673
S31508000E100D4616461F4607E03046A047294600F00D
S31508000E20ADFB05467F1E761CBFB2002FF4D12846BF
S31508000E30F2BD38B50C46154605E0014614F8010B17
S31508000E4000F09CFB6D1EADB2002DF6D132BDF8B593
S31508000E5004460D4616461F463A4631462868236814
S31508000E609847040005D13A463146E868FFF7E1FF9E
S31508000E70E8602046F2BD10B5029C84720381426088
S31508000E8001604FF0FF31C1600021017410BD2DE9EA
S31508000E90F84F04468B461E469BF81B70802F28BFCA
S31508000EA08027D068A649884250D1002E4CD0B06819
S31508000EB000904FF0FF384FF000090BEB490A9AF8FB
S31508000EC048500FE0FF2D16D0FFF7FCFA4FF40063E9
S31508000ED0E80240F0006241460098FFF797FF804617
S31508000EE0681CC5B29AF84900A842EBDA09F101096B
S31508000EF0B9F1060FE1DBDBF844006FEA0801884226
S31508000F0024D1A06800BA7A08594673689847C8B9C0
S31508000F10E06805BAA06802BA3B464FF0FF31B068F0
S31508000F20FFF774FFC04385420CD140F6A720ABF803
S31508000F301000A06800BA01220BF110011030736886
S31508000F40984708B1422002E0172000E04320BDE898
S31508000F50F28F2DE9F84F80460D469146D5F804A044
S31508000F602889ADF8000005F1140606F110070423D8
S31508000F7052464046FFF76BFF002824D1BAF8000016
S31508000F8040BA1FFA80FBBAF8020040BA84B2E007FA
S31508000F9048BF462075D4B4F5026FC8BF4E2070DC32
S31508000FA0002C6DD05FEA0B000AD04FF60441BBEB6C
S31508000FB0010000F0AD80FF3865D0FE3863D0BDE093
S31508000FC0287C08B151205CE08D2C28BF4F2058D2D0
S31508000FD02346321D00F0BBF8002852D1FA7E802A3B
S31508000FE028BF802202F10C00844201BFB08840BAB3
S31508000FF000F47F40B0F5007F3ED1F08840BA4EF24B
S315080010005031884202BF388A40F6A721884202BF7B
S31508001010788A00F47F40B0F5807F2DD1B06800BA99
S315080010204849C969884227D14648008B40F20321BE
S3150800103088420BD1788AB0F5847F1DD3F86D4105B7
S315080010401AD14149081AB0F5283F15D84FF6FF704E
S31508001050388206F110014FF0FF30FFF7EAFEF1681B
S3150800106009BAC943884204BF387E042804D1787E69
S31508001070032818BF062801D0452002E0012028745D
S315080010800020BDE8F28F287C002843D0042300F016
S315080010905DF80028F5D1DAF8000006BA201F84B2F8
S315080010A02848C069864238BF4820EAD3A019796D16
S315080010B0884228BF4920E4D24FF6035083450DD114
S315080010C0B9F1000F0AD031460220D9F8002090471E
S315080010D020B14A20D5E7E01B84B2BE19002CCFD038
S315080010E0BDF800008442B4BF274607463B4600F0D9
S315080010F02DF80028C5D1B9F1000FECD07A08514671
S315080011003046D9F8043098470028E4D04B20B8E791
S31508001110287C08B94120B4E7042C18BF4C20B0D16C
S3150800112004236A6800F013F80028AAD14B462A4619
S315080011303946304601B0BDE8F04FA8E64420A0E79E
S31508001140E320BBDE0000000800E0020852462946FC
S3150800115040467CE670B504460D4616462889C10702
S3150800116001D4802803DA4F2070BDA87A78B93246B0
S3150800117029462046FFF7EDFE0028F6D0172807D1A6
S31508001180286861688847172802D1002070BD50205A
S3150800119070BD00002AE038B50546FFF77DF9FA214B
S315080011A090FBF1F44FF4F070B0FBF4F02D1A2DB269
S315080011B01E2DBCBF4FF40170FFF7D6F85F48072114
S315080011C001600021416081605D494FF000720A604C
S315080011D005FB04F1C91C8908491E416031BD5A48FE
S315080011E0016841F001010160012141605748512120
S315080011F001607047002070472DE9F843804640F2A9
S31508001200DC594C464F48B0F900704C48514D504E89
S31508001210012F1ADA0221B18029600068C00348BF8D
S3150800122000F075F8A86900F0030003285DD0002FC8
S3150800123003D5A86940F00200A8614046FFF7DAFF27
S3150800124004001AD1002F50D54DE04FF6FF77B1882C
S31508001250B9421CD102237F223F480188301D00F085
S315080012609DF9B088B84204BF0220B080A8698007FB
S3150800127003D4A86940F00200A86101207070B08804
S31508001280286020B2FFF787FF2046BDE8F283A969E8
S315080012908907EED50068C00348BF00F038F87078B3
S315080012A008B14846F1E7A86810F00100A968B288B5
S315080012B003D10F2A08D2521C06E0890704D5F17813
S315080012C011B1032A28BF521EF07092B2022A38BF03
S315080012D00222B2802868B1888842CED1A86900F077
S315080012E00300032801D0FFF77AFF0020CDE710B5E9
S315080012F0044604E000F0D6F80620FFF77BFF2046F8
S31508001300FFF77AFF0028F5D110BD0220EFE70B485A
S31508001310002141608160016821F0020101600848EE
S315080013204FF0007101600A48417801B9704780B5ED
S31508001330002141700620FFF75DFF01BD10E000E0C7
S3150800134004ED00E0CE1700081C4000400080004075
S315080013500004002004400040CC17000806E0000006
S315080013605FEA000D70474248008870474FF40170E5
S31508001370FEF7FABF38B5FEF7B1FE4FF20F043D4D42
S3150800138028B140F2052028806C80012032BD3A48F9
S315080013900068C00613D56888A0421CD1288840F288
S315080013A0022188421CBF40F20621884213D040F22F
S315080013B0011188421CBF40F2111188420BD02F4CF4
S315080013C0208A40F6A721884205D12068FFF7C8FF82
S315080013D06068804700BF002032BD000038B50400B1
S315080013E0274872B60168490849000160FFF7D2FE2E
S315080013F021480068000910F001000CBF2149224964
S3150800140002E0CD2201F8012B204A9142F9D3204966
S31508001410204A214B03E011F8015B02F8015B9A426E
S31508001420F9D31E491E4A002301E001F8013B914207
S31508001430FBD3104A53884FF20F05AB4240F2052101
S315080014400AD113888B4205D030B1180A012818BF73
S31508001450022801D1194601E004B900210448018097
S315080014604CF23C305080FEF74DFFBDE832407DE738
S31508001470BA0C0020000000202C00004000200008C4
S31508001480FCED00E000000020980000200004002089
S31508001490D0170008000400200804002008040020D3
S315080014A0BD0C002070B50646274C2568FEF7FCFFE4
S315080014B0FA2190FBF1F070432F303021B0FBF1F0A8
S315080014C0032809D3616D41F0010161652168491B53
S315080014D00903090B8142F9D370BD38B50C4620B112
S315080014E0012818D003282BD02CE0184D8CB11848A9
S315080014F084421CBF4FF40170FEF736FFFEF7D4FF97
S315080015004FF47A714843B0FBF4F0401EB0F5005F23
S315080015100ED2286014E05CB1FEF7C6FF4FF4FA61FC
S31508001520620801FB0020B0FBF4F0B0F5003F01D3E0
S31508001530202032BD074900F001024A6040080860D1
S31508001540002032BD212032BD38200040100004E0C2
S3150800155020A1070068C800400A0242EA1121484053
S31508001560C0F30311484080EA003041010206C9B2BF
S31508001570D20E41EA0221484080B270470A0A484022
S31508001580C0B208214308C00746BF0348584018465A
S31508001590491EF7D1504070472083B8ED30B5044650
S315080015A010467F2808BF0020B1F5004F83B01AD136
S315080015B008237F2240F6120100A8FFF7EFFF082252
S315080015C00FF2380100A800F036F830B908237F2258
S315080015D040F2A27100A8FFF7E1FF082200A9204601
S315080015E000F010F837BD044D294300FB03111A46D5
S315080015F0204600F007F837BD00000408FFFFFFFF8C
S31508001600FFFFFFFF814212D210185118401E491ED3
S3150800161092B2002A1EBF11F8013900F80139521E8C
S31508001620F6D1704711F8013B00F8013B521E92B201
S31508001630002AF7D1704710B500E0521E92B21AB1CF
S3150800164000F004F8F9D007E0002010BD10F8013BBF
S3150800165011F8014BA3427047181B40B210BD000099
S3150800166009480068202100EA010028B107480168F6
S3150800167042685FEA010D10477047FFF7F1FFFFF771
S3150800168079FEFFF7ABFE00002C00004000200008A2
S315080016902848018A40F6A772914202BF418A4FF450
S315080016A07F40014204D102298041C043C00F7047E0
S315080016B000207047F8B504460D461D4E01203070CF
S315080016C0FFF7E6FF18B94FF40170FEF74DFE19480B
S315080016D0876A294644F48070B847002131700FF2B2
S315080016E0580618B9294644F40070B847805DF2BD1B
S315080016F02DE9F041044688465600FFF7C9FF18B998
S315080017004FF40170FEF730FE0A48476A0023324656
S3150800171041462046B8470FF2200520B93346002235
S3150800172041462046B847405DBDE8F081000000000C
S31508001730BC0C002000000408000202024B4B46477E
S315080017405732355832304256000000005732355865
S315080017503430425600000000573235513830425670
S31508001760000000004D5832354C3230303645000006
S315080017704D5832354C383030364500004D583235E4
S315080017804C313630364500004D58323555313633F2
S315080017903545000041543235444630343141000065
S315080017A04154323544463038314100004D323550C7
S315080017B0323000004D323550343000004D3235504D
S315080017C0383000004D32355031360000EE08C05D25
S30D080017D000000001FFFF000004
S7050800167B61
