S01400004175726F72615F64696D6D65722E73333799
S31508002000781C0020B95202083552020837520208D5
S31508002010A70A080100210008040303AC00537A014B
S3150800202000000000000000000000000000000000A2
S315080020300000000000000000000000000000000092
S315080020400000000000000000FFFFFFFFFFFFFFFF8A
S31508002050FFFFFFFF00E0020802000000000000008A
S31508002060FFFFFFFFFFFFFFFFFFFFFFFFFFFFFFFF72
S31508002070FFFFFFFFFFFFFFFFFFFFFFFFFFFFFFFF62
S31508002080F02F002000000000ED2F0020ED2F00208B
S31508002090781C002048660208EC5402081813002031
S311080020A0480D0020000003080030002056
S31508002100781C0020B95202083552020837520208D4
S315080021103B520208395202083D520208B4520208DC
S31508002120B4520208B4520208B4520208B452020861
S315080021303F520208B45202089D5402080F3C000898
S3150800214099510208B452020849790008B4520208A3
S31508002150338500089F770008B4520208B452020873
S31508002160416C0008C5320008532D0008912100086B
S31508002170B4520208AB780008DBC60108874100089C
S31508002180B5CB0008B4520208B4520208B552020888
S3150800219070B52C482C4942780B685B0725D5032A6D
S315080021A023DA838800EB4204A3810123847803FAA7
S315080021B002F222438270254C0278002A12D00025AA
S315080021C022FA05F6F60708D5AB4045705A40027064
S315080021D010EB4500808A206007E06D1CEDB2032DE8
S315080021E0EEDB02E02260032242704FF6FF700860C1
S315080021F0BFF35F8F70BD13480021017000220321D1
S3150800220041700021C1700521018100218170001DE6
S315080022100E490A604A604FF400428A601022CA607A
S315080022204861012088610320C860042106480164CA
S315080022304FF6FF7101604FF400600549086000F031
S3150800224044B800009820002010A8004004D00040A0
S3150800225000E100E0DFF8D43433F810001040C8403D
S31508002260704730B5DFF8C8340FF2745434F81040AC
S315080022709C60DFF8B84434F8105095431140294360
S31508002280D96002221A6000221A6024F810105868D1
S315080022900028FCD130BDDFF89C04DFF89C148A784E
S315080022A00AB149780FE089566FF008029142B8BF23
S315080022B0302108DBC16D39B140F24A31C26DB1FB3C
S315080022C0F2F189B2C91E01607047E0B50A237F2280
S315080022D0DFF8680400F062F84FF6FF72BDF80610E2
S315080022E00D20FFF7BEFF07BDF8B50546DFF84844E1
S315080022F0B5F5004F19D102237F22DFF8440400F018
S315080023004DF8BDF80000000AFF2814BF0028182061
S315080023106070BDF800000006C00E10281CBF001D26
S3150800232000F091F9BDF80000C543E07808B1002037
S3150800233005E0A089ADB26840C00701D50120E0706C
S31508002340A58105F00106C5F34007DFF8F803016823
S3150800235041F4004101604FF440520FF2A84000EBEF
S3150800236046004078010389B20220FFF77AFF30461B
S3150800237000F04AFA4022B90100F0FCF92D06A80E31
S3150800238000F001003843A070FFF785FFE07818B128
S31508002390FFF79BFF0020E0700020F2BD018800A82F
S315080023A000F0A8BA2DE9F04F87B0DFF89C532878DB
S315080023B004900B38C0B203900423039A0B2100A89B
S315080023C000F010FB9DF800008DF80A009DF801004A
S315080023D08DF809009DF802008DF808009DF80300A5
S315080023E08DF80500D94E3078012804D16878471E43
S315080023F0BF41FF0F00E0012700F07AFD80469DF9F6
S315080024000200A8F10A0408F10A0A5045B6BF844238
S315080024104FF0010B4FF0000B012003998840ADF8EF
S3150800242006009DF80100000604D4A888BDF8061029
S31508002430084201D04FF0010B00F0F0FD9DF80300B3
S3150800244000060AD4E888BDF80610084205D19DF9A9
S3150800245000005045B8BF844202DB4FF0010901E095
S315080024604FF000094BEA070059EA000000F09B808C
S31508002470B748006800F002008DF80400DFF8D4A21F
S31508002480DAF8000000F4E0600590B3484FF4E06124
S315080024900160002001F0B0F901F0F8FBAF4CA7B1DC
S315080024A0687850B1AA48006840084000A849086002
S315080024B00120307001F0CBFC07E0206840F40050A2
S315080024C02060206820F480502060307801280CD1E4
S315080024D001F0E8FD9E48006840F001009C4908604C
S315080024E000203070642001F0B2FC2FB1687818B96A
S315080024F00498C0B201F0B3FE687838B1206820F4B9
S3150800250080502060206840F400502060BDF8060026
S31508002510C643BBF1000F08D001F08EFF8DF801000D
S315080025208DF80280A8883040A880B9F1000F08D03D
S3150800253002F029F88DF803008DF80080E88830400D
S31508002540E8809DF900009DF90A10884202BF9DF8AF
S3150800255001009DF8091088420BD19DF902009DF9EA
S315080025600810884202BF9DF803009DF805108842AE
S3150800257006D0042300AA0399C9B20B2000F043FA37
S315080025800598CAF8000000F073FA9DF8040001F0F7
S3150800259033F902F01CF9687828B148F260702060B7
S315080025A0642001F054FC9DF8010001F0AFFE9DF88F
S315080025B0030001F0E3FF07B0BDE8F08F80B500F037
S315080025C093FCBDE80140EDE600F08EBC70B506460A
S315080025D0A6F10B0401F073F80546A6F10B00C0B28C
S315080025E0102801D38A2070BD5D488168090702D486
S315080025F00068C00701D58C2070BD5348067059493C
S315080026000A680C2A0ED0A4B20FF26C1232F82420F3
S3150800261090F908008018C861FFF7C4FE012D08BFAD
S3150800262000F0E1FF002070BD10B5044600F05CFC28
S315080026302046BDE81040C9E74348007870473E4841
S3150800264090F9000070472DE9F04186B006466FF014
S315080026502A00864246DB14237F224348FFF79EFE64
S31508002660BDF810004FF6FF71884203D0400448BFFA
S31508002670012506D43F2200211020FFF7EBFD044672
S3150800268000252D48394906F12B02D2B22F2A1AD233
S3150800269013220FF2241300E0521ED2B213F912705D
S315080026A0BE42F9DB03EB420676780E6013F8121089
S315080026B001700020002680460327ADB14FF6BF7291
S315080026C0BDF8101029E0092E0CDA325C0A60067093
S315080026D014237F222648FFF761FE03200126B04611
S315080026E02827EAE78B201DE04FF46052C10200F06C
S315080026F041F84FF4E062310200F03CF880224FEADC
S31508002700C81100F037F884F020003C18A4B2402C19
S3150800271028BF3F243F2284F0200100F02BF8FFF762
S31508002720BAFD002006B0BDE8F0810000702C00203C
S31508002730E810004064100040201F00200C620208C8
S31508002740186202081C100040161F0020911F002066
S315080027508020004000E100E080E100E0D010004069
S3150800276060200040AC10004008620208C01000401B
S315080027700A6202080B2074E5AA21290055232900BC
S3150800278000252800AA26270055282700002A260003
S31508002790AA2B2600552D2500002F2400AA30240038
S315080027A05532230000342200AA352200553721006D
S315080027B000392000AA3A2000D500E601EC02EF0312
S315080027C0F204F405F506F707F808F909FA0AFB0B07
S315080027D0FC0DFD0FFE11FF1300160119021C031F45
S315080027E01000110020003000400041005000600039
S315080027F0700080009000A000B000C000D000E0008B
S31508002800F000000000000103F0B589B0044600207E
S3150800281001F0B4FA0A237F222548018800A800F0AF
S3150800282069F84FF6FF75BDF80200A84204D1DC210D
S315080028300FF2940002F004F800260FF2A40701E054
S315080028402A4616B94FF47C4203E0022E08BF4EF220
S315080028503F0200A800F032F8761C052EF0D3012CB2
S3150800286003D114237F22134802E014237F2212483F
S31508002870018803A800F03EF800260FF26C072A46E6
S3150800288008E02A46012E08BF4FF6C07202D0082E6D
S3150800289008BF002203A800F011F8761C0A2EF0D310
S315080028A0012C04BF012001F069FA09B0F0BD00004F
S315080028B00C6202080A6202080862020830F816105A
S315080028C0F05DFFF7CEBC0000616E616C6F677565E1
S315080028D02D63656C6C2D626961732E6300000000C0
S315080028E000100C0D0E000000010203040708090A77
S315080028F00B0F000030B5044610467F2808BF00209D
S31508002900B1F5004F83B01AD108237F2240F6120191
S3150800291000A8FFF7EFFF08220FF2380100A802F01F
S315080029206DFD30B908237F2240F2A27100A8FFF797
S31508002930E1FF082200A9204602F016FD37BD044D26
S31508002940294300FB03111A46204602F00DFD37BD48
S3150800295000000408FFFFFFFFFFFFFFFF30B50FF27F
S315080029600411DFF8F8500A6883B001A80024026051
S3150800297001202870002002F061FD30B1002002F02D
S315080029805DFD10B12C7049203EBDDFF8D4000188EA
S3150800299002237F220DF1020000F024F802237F2291
S315080029A0002100A800F01EF8204601A9BDF8022063
S315080029B031F81010914208BF0124401C0228F4D3B4
S315080029C0BDF8000024B1B0F57F7F07D100203EBDD9
S315080029D0B0F57F7F0CBF0620042000E00720002109
S315080029E029703EBD10B5FF2908DCDFF87040247851
S315080029F044B1BDE81040C9B202F0FCBFBDE81040C2
S31508002A00FFF778BF10BD2DE9F0410546FF2D0E46AC
S31508002A10174698460FF2500012DC104C2178A1B1E7
S31508002A20617811B1C22101F00BFF012060704346A5
S31508002A3032463946E8B203F03AF90020607004E0FD
S31508002A40BDE8F041CD2101F0FBBEBDE8F0810349A8
S31508002A500978002918BF03F039BA7047D12F00202A
S31508002A6014620208FE01FD02746F6B656E2E630028
S31508002A7010B5DFF844451020206303F0D7FADFF8D5
S31508002A803C150A6842F001020A6003F0D5FADFF83D
S31508002A9030056060206061688931616001212163C9
S31508002AA08A30E060A060E0688930E0600220206338
S31508002AB0DFF810054FF6FF71016010BDDFF8080555
S31508002AC045F26401C1601E21416250210162C8219C
S31508002AD0C1618165F021C16545F69001416688218D
S31508002AE081660621C16644F2066101604FF6FF71F0
S31508002AF04160DFF8D804007838B1DFF8D40448F22A
S31508002B00607101604FF4C1514160DFF8C804016883
S31508002B1041F004010160DFF8C004002141707047EC
S31508002B202DE9F84F0446DFF8B4148A2202FB001296
S31508002B30121D0092521C5378127802EB03221FFAD8
S31508002B4082FB0BF440424FF000094FF0010A0BF4E8
S31508002B5040630425B3F5006F08BF082503D0B3F515
S31508002B60406F08BF0E25130004D05FEA4B635CBFB5
S31508002B70AB1CDDB2DFF868341B784B705FEA8B63F9
S31508002B8074D5DFF86064736E1B066FD54718009816
S31508002B9028184FF40068B2F5404F07D103F0A6FA9B
S31508002BA05FEA000927D005F108000EE0B2F5004FEC
S31508002BB021D140780099695C01EB002080B203F0CE
S31508002BC015FDFF280CD1CA46A81CC0B241080BF057
S31508002BD00702032A0FD1002C14BF7268326815E069
S31508002BE0DFF80414096831F810004FF4FE61084252
S31508002BF018BFD146E8D10020B870F06DC00635D5AB
S31508002C00B06C002C08BF4FF4806828E08A42F2D3E3
S31508002C10002C14BF726832684B1C9A42F8D300998C
S31508002C20405C0428E7D1BAF1000F02D10020B87041
S31508002C3004E00020B870B9F1000FDED0F06DC006D0
S31508002C400AD4B06C0CB94FF4806810EA080F03D0A8
S31508002C50706C40F0010070640120B87006E010EA5C
S31508002C60080F03D0706C400840007064BDE8F18F0F
S31508002C702DE9FC4E0446DFF864B38A2000FB04B055
S31508002C80071DDFF86053002C0CBF286868684600EB
S31508002C90C0B2052805D24FF4F6710FF2783001F06C
S31508002CA0CFFD5FFA86F909EB0700A0F10806307830
S31508002CB0717801EB00201FFA80FA9BF8010030704A
S31508002CC003F05AFD7070C94EF06B20F48050F06323
S31508002CD0686ED4B9306840051CD41AF4E45F0FD185
S31508002CE000F087FD10B15FEA4A4009D53878802898
S31508002CF006D204EB0B0082784946384603F09AFD63
S31508002D00002C0CBF0120022020E0012CE5D1306800
S31508002D100005E2D5B648017881B100210170B548B1
S31508002D2001681AF4E45F02D00022402004E07878B3
S31508002D30000900F001028F2003F0F7FE002C0CBFFB
S31508002D404FF480604FF400603060D9E72861BDE831
S31508002D50F38E2DE9F84F9B4C2068216C01EA00059B
S31508002D60A04EDFF894A2DFF88882DFF87092A34FAE
S31508002D701AE040B14878C00605D400229D4801688B
S31508002D808F2003F0D2FE280605D503F019FF25F09B
S31508002D90800580202060E80506D503F011FF25F49C
S31508002DA080754FF480702060002D68D0280706D5FE
S31508002DB00020FFF7B5FE25F0080508202060E80684
S31508002DC006D50120FFF7ACFE25F01005102020607F
S31508002DD005F06000602803D1B06CC0050AD401E094
S31508002DE0A80605D525F0200520202060002006E04D
S31508002DF0680606D525F04005402020600120FFF72B
S31508002E0037FFE80410D525F480554FF4805020602C
S31508002E10D7F800B0082038607868000548BF00F089
S31508002E2033F91FFA8BF03860E807ACD56D086D00EA
S31508002E300120206099F800000028A4D000F051FC79
S31508002E400128A0D198F8000000289CD09AF8000024
S31508002E50042898D1F068400800F001008A2101FB97
S31508002E600091091D002814BF7268326812B92268D9
S31508002E70D204F7D5002814BF7068306879E70020B7
S31508002E802060BDE8F18F5E4800687047F0B589B0EC
S31508002E9004460D460021032001F042FC04AE1BE067
S31508002EA0002701F058FC26F8170001F054FC00A989
S31508002EB021F817007F1C082FF3DB04A803F03AFF5C
S31508002EC000202080218836F8102051402180401C9F
S31508002ED00828F7DB6D1EA41CEDB2002DE0D101F029
S31508002EE076FC012009B0F0BD0321022001F018BCD0
S31508002EF0F8B529244FF6FF7501F02DFC281A90FB2A
S31508002F00F4F000F13A063F4F3878B8B903210320A8
S31508002F1001F006FC02237F223B48018800A8FFF740
S31508002F20E9FC01F018FCBDF80010401880B2281A18
S31508002F3090FBF4F0253078700120387001F047FCDA
S31508002F407878301A40B2F2BD80B50321022001F02C
S31508002F50E7FBBDE80140CBE770B500242B480078B5
S31508002F6090B9FFF7F1FF05461B4E707848B13078E7
S31508002F70401B40B203F0EFFE0B2805DB3570012439
S31508002F8002E0357001207070204670BD80B540B1F2
S31508002F901F48002101600948016821F0800101608D
S31508002FA001BD00F05BFC00F033FC00F0E5FBBDE87A
S31508002FB0024000F0C9BB0000002000408420004009
S31508002FC0E02C002000A000404C100040171F0020F5
S31508002FD0D010004080200040E22F0020DC2C00208A
S31508002FE0161F002020200040C81D002004A0004015
S31508002FF0841F00209C1F00208F1F0020B82000403F
S3150800300038200040E02F002012620208911F00209D
S31508003010541000407068792E6300000010B584B023
S315080030200A237F220B48018800A8FFF763FC4FF6A6
S31508003030FF74BDF80000A04204D14E210FF218001B
S3150800304001F0FEFB2246BDF800100020FFF709F943
S315080030501FBD00000C620208616E616C6F677565C2
S315080030602D66696C7465722E63000000DFF8F4073C
S31508003070417A39B1017A012904BFC07A042801D1FD
S315080030800120704700207047DFF8DC07016821F44B
S3150800309080510160DFF8CC07017881B10021017009
S315080030A0DFF8C8170A68520852000A600A6842F030
S315080030B001020A6000228169402003F036BD70478C
S315080030C00FF63C01405C7047010603D54FF67F7149
S315080030D00840C00070478001B0FBF1F080B2FF28BD
S315080030E088BFFF20C0F1FF00C0B2704738B5DFF8CF
S315080030F07407817A012901D1002032BDDFF87447AF
S31508003100617871B1E178807B4518ADB22079854246
S3150800311028BF054603F038FE0121A940491E08408C
S3150800312000E0002061790818C0B232BD2DE9F047E9
S315080031300446C00703D540F26D1100F050FADFF8D7
S315080031403857286DC00748BF8C2000F19180DFF8FA
S315080031501467002030733070DFF818773878A0B11C
S315080031602078122818BF0C280BD1617801F00701C6
S31508003170032902BF001910F8020C042804BF012015
S315080031803073A86F40F0010002E0A86F40084000C5
S31508003190A867707BDFF8E486DFF8E496797899B15A
S315080031A00021B173296D41F004012965012807D171
S315080031B04FF6FF70C9F800004FF40070C8F8000019
S315080031C0FFF794FF82460CE0296D21F0040129657A
S315080031D04FF0000A012804D100F042FA642000F0FA
S315080031E036FEA86F20F00800A8671420E864C5F822
S315080031F048A0787830B1707B002801BFA86C0028F9
S315080032000120A864B8790028286D14BF40F008008A
S3150800321020F008002865FFF729FF28B1D9F84000F3
S3150800322040F00800C9F84000202028626C602C6035
S3150800323068687F306860042028624FF4E064DFF82D
S315080032404406046006E003F0AFFD18B103F0B4FDD0
S3150800325002F0ECFEDFF83006006800F003000328F1
S31508003260F1D0C8F80040286D40F00100286500201C
S31508003270BDE8F08710B50446FFF705FE201A0003DF
S31508003280000B3338DFF8041688421AD2DFF8000636
S3150800329002210160DFF8FC15A2B24A60220C02F096
S315080032A00F020A60016C41F002010164DFF8E8458B
S315080032B00020207002E0012003F082FD207800281B
S315080032C0F9D010BD2DE9F84FDFF8D0657068716C3C
S315080032D008401FFA80F8C6F80480DFF89C75DFF806
S315080032E084556878002840F0D180DFF8B445DFF8C7
S315080032F084955FEAC8704CD5D7F800A0386C796C0D
S3150800330041EA0041A96199F8000000283DD09AF8E1
S315080033100100800639D5012028704FF480503060AE
S31508003320306C40F480503064FFF7A0FE88B3192053
S3150800333000F08DFDDFF86CB54FF44040CBF828005F
S31508003340DBF800000090E06E40F40050E066E06EA6
S3150800335040F48050E066A8699AF800104901B8312F
S315080033600818FFF787FFE06E80098001E066E06EC7
S3150800337000A909880843E0660020CBF8280048F22F
S315080033806070E066A88A206003E00022002003F04F
S31508003390CCFB5FEA08600CD5287830B1002028708D
S315080033A00022A969402003F0C0FB306C20F480504D
S315080033B030645FEA486008D5687830B9FFF763FD7E
S315080033C000220146892003F0B0FB5FEAC8604FD5AA
S315080033D0287ADFF8A8A4012804BF697B01291ED131
S315080033E000F060FE386F40F001003867002068730F
S315080033F0FFF73EFB0A2000F02AFD4FF000084FF6C3
S31508003400FF7070604FF4E060CAF800000920B866E3
S315080034100120B864B86F40F00800B86718E0A97BC7
S31508003420491CA97399F80220C9B2914215D20128FC
S3150800343008BF00F0D8F8B86F20F00800B867142065
S31508003440B866FFF753FEB8644FF40070CAF8000078
S31508003450386D40F0010038650AE0012808BF00F021
S31508003460C2F8FFF710FD002201468D2003F05DFB30
S315080034705FEA08700AD5FFF7F9FD38B12068A88217
S3150800348001202060706C20F0080070645FEA886094
S315080034900AD520203862687830B9FFF7F4FC002294
S315080034A00146882003F041FB687820B118F4407F74
S315080034B004BF0120A870BDE8F18FDFF8F00300888B
S315080034C0704770B582B00446FFF77EF8DFF8E00370
S315080034D000210160DFF894531521E960092101658F
S315080034E01F21416001210166DFF8C0030088FEF74D
S315080034F0FBFEFFF7E3FA03F095FF00F040F9DFF86B
S315080035006463308A00F068F9708A00F06DF902F099
S315080035108DFD696841F04001696002F08DFD7079A2
S3150800352000F002F9B07900F00FF9307900F03EF9B1
S31508003530DFF8800390F90000FFF785F8F07800F0CF
S315080035405BF996F9070000F063F902237F22DFF89A
S315080035506803018800A8FFF7CDF9BDF80000C0058B
S315080035604CBF0020BDF80000DFF850130870DFF8E4
S3150800357050030078FFF72AF818B140F2963100F0A8
S315080035802EF8012C05D12868C00711D500F02BF8B4
S315080035900EE06CB92868C0070AD400F083FD2868D5
S315080035A040F001002860C82000F051FC002070732C
S315080035B0DFF8CC42F120206440F2F910E063FFF70F
S315080035C057FA2868C00707D54FF6FF702060DFF85E
S315080035D0AC024FF4E061016000F058FB73BD0FF2D6
S315080035E0103001F02DB970B5DFF8D8522E68DFF823
S315080035F07442607B012832D002F018FD48F2D001EF
S3150800360029606A68520509D548F222022A606A6862
S31508003610D205F5D529606A685207F1D4B6B22E608C
S31508003620DFF860124FF4E0620A60DFF87C120A6A7B
S31508003630520852000A620A68520852000A600A686A
S3150800364042F002020A604A6A42F001024A62012115
S31508003650617302F0F1FCBDE8704000F0F4BC70BD87
S3150800366070B5804C607B48B300F01CFD02F0DEFCB0
S315080036700546DFF85402012101607D4E306D40F0A9
S315080036800100306500206073FFF7F2F920203060F2
S31508003690306B40F002003063F06D40F00800F065D2
S315080036A0284602F0C9FC0A2000F0D1FB74484FF600
S315080036B0FF71016071484FF4E061016070BD6948AF
S315080036C0407B704710B5674C607B18B140F2874164
S315080036D0FFF785FF207A18B1FFF785FF207A607318
S315080036E010BD6048007A704780B5022801D30120D2
S315080036F002BD5C490872487B012804D1087A20B9C2
S31508003700FFF7AEFF01E0FFF7DDFF002002BD6F48BF
S315080037100068800200149A386FF07F0201B2914265
S31508003720B8BF104640B2704710B5044602F07EFC9A
S315080037306749002C0A6814BF42F0120222F01202EE
S315080037400A6048494C7140E038B5044602F06EFC00
S31508003750054600F012FD40B95D48002C016814BF0B
S3150800376041F0800121F0800101603E4884712846BD
S31508003770BDE8324002F060BC3A4880797047554847
S3150800378055494A780B7813EB02220260CA788B787F
S3150800379013EB022242604A790B7913EB022282600C
S315080037A0CA79897911EB0221C160704710B50446C0
S315080037B002F03CFC4649002C0A6814BF42F020027D
S315080037C022F020020A6027490C71BDE8104002F079
S315080037D033BC2448008A7047224908823F4908605A
S315080037E070472048408A70471E4948823C4908600D
S315080037F070473C48007870471C4900280A6814BF7F
S3150800380042F0020222F002020A601649C8707047A6
S3150800381038B504467F2C0ED102237F223248018810
S3150800382000A8FFF767F8BDF80000C00554BFBDF84B
S3150800383000406FF04A0402F0F9FB054600F09DFCD3
S3150800384030B964B204F19A008005000C2749086073
S315080038500448C471284602F0EFFB31BD014890F9CF
S3150800386007007047841F002040A0004080200040C9
S3150800387030200040781F00201020004000E100E0C2
S3150800388004A0004080E100E0A8200040CDFF07002A
S3150800389008A0004040200040DB2F002000A0004088
S315080038A064100040E4100040602000402C1F0020F7
S315080038B05C100040201F00201E6202081E1F002008
S315080038C0161F00201C100040281000400C10004055
S315080038D08420004098200040C42C002094200040FA
S315080038E090200040A01F00202062020854100040CB
S315080038F07068792D636F6D6D6F6E2E630000000022
S31508003900FEFEF7F7C8C80100DFF8F8035121016089
S3150800391070472DE9F041054603F09AFDFA2190FB20
S31508003920F1F64FF4F070B0FBF6F73FB21E2D01DB4F
S31508003930E81B04D5A8B2BDE8F04100F088BA02F049
S3150800394075FB804603F0EAFDDFF8BC03072101603A
S31508003950002141608160DFF8B4134FF000720A60FD
S31508003960E91B09B27143C91C8908491E416000F068
S31508003970AEF8DFF890733C68386820F0400038608D
S3150800398003F0CEFD3C602E6003F0CEFD03F0D4FDBF
S315080039904046BDE8F04102F04FBB38B5054603F096
S315080039A057FDFA2190FBF1F44FF4F070B0FBF4F0F8
S315080039B02D1A2DB21E2D04DA8A210FF2943000F04A
S315080039C03FFFDFF844030721016000214160816061
S315080039D0DFF838134FF000720A6005FB04F1C91CC2
S315080039E08908491E416031BDDFF82403B0F900009B
S315080039F000B970472DE9F0410024DFF818532C6010
S31508003A00DFF8146334604FF4A040706041F29A08FE
S31508003A104046FFF77EFF6F6803F022FD00010A218A
S31508003A20B0FBF1F000F5C870C01B00B24FF4487146
S31508003A3090FBF1F000F3030030604046FFF769FFA2
S31508003A4008274046FFF765FF686804197F1EF8D106
S31508003A5003F006FD4FF4FA414843211DC908B0FB9F
S31508003A60F1F080B27060BDE8F081DFF8A402B0F929
S31508003A70000000B9704738B56FF00F04DFF89C52A4
S31508003A800120A8602C608020FFF743FFE868FF2824
S31508003A9002D8641C102CF5DB31BD70B5DFF8800246
S31508003AA0016841F0010101600121416002F0BEFA9E
S31508003AB0044600F00CF8DFF84C02512101602E6034
S31508003AC003F032FD2046BDE8704002F0B5BADFF8D3
S31508003AD054522E68286840084000286003F024BD28
S31508003AE000207047F8B5014640F2DC500446884A83
S31508003AF0B2F900708D4D8C4E012F15DA02203081F7
S31508003B002860A86900F00300032857D0002F03D5C2
S31508003B10A86940F00200A8610846FFF7E1FF040023
S31508003B201BD1002F4AD547E031894FF6FF77B942B6
S31508003B301CD102237F227E48018806F10800FEF781
S31508003B40D9FE3089B84204BF02203081A8698007AF
S31508003B5003D4A86940F00200A8610120707030897A
S31508003B60286020B2FFF719FF2046F2BDAA6992071E
S31508003B70EFD57278002AF8D1A86810F00100AA6873
S31508003B8003D10F2909D2491C06E0920705D53279D7
S31508003B901AB1032901D3491E3181307130890228AF
S31508003BA03CBF02203081286831898842D5D1A8696E
S31508003BB000F00300032801D0FFF76FFF0020F2BDD5
S31508003BC02DE9F047804600244E4D564E02F02EFA57
S31508003BD0814603F0A3FC4046FFF784FF08B9012499
S31508003BE00AE000F04CF8D5F800A000F0ABF8C5F8EC
S31508003BF000A0376003F098FC03F09EFC484602F0EC
S31508003C001BFA002CE2D0BDE8F0870220D8E710B5F1
S31508003C103D48002141608160016821F00201016090
S31508003C203A484FF0007101603F4C607848B1002077
S31508003C3060700620FFF754FF3548B0F900000128E8
S31508003C401CDBA078012814D13A48012101603A49C1
S31508003C500968C90748BF03200FD40221A170016C67
S31508003C6041F00101016435480421016034480160CE
S31508003C7010BDA078042801D10520A07010BD3768B2
S31508003C80306840084000306003F04EBC2DE9F84328
S31508003C90254C2078002830D0E07800282DD11C4803
S31508003CA0B0F90000012820DA40F2CD310FF2A00069
S31508003CB000F0C6FD19E002F0B9F9804603F02EFCC3
S31508003CC0A07805280CD0174EFFF7D9FF0D4DD5F86B
S31508003CD0009000F037F8C5F80090376003F024FC30
S31508003CE003F02AFC404602F0A7F9A0780528E2D19D
S31508003CF0002060700520FFF763FF00202070BDE8F4
S31508003D00F18300000080004010E000E004ED00E0D0
S31508003D1024620208104000400C00004008400040A1
S31508003D201C40004094ED00E0E81F002004400040DD
S31508003D301C62020818A000400C40004080E200E027
S31508003D4000E100E0286820F04000286003F0E8BBA6
S31508003D50636C6F636B732E630000000010B56D4CC7
S31508003D60002000F03AFD40F68C218842206834BFD6
S31508003D7040F0080020F00800206010BD10B582B0A1
S31508003D80044600F05FF800A8FEF7B4FD9DF80100B0
S31508003D909DF80010FF2902BFFF280420002104B166
S31508003DA0801CC0B2082828BF0720082928BF072179
S31508003DB0594A136823F4607343EAC0101060106808
S31508003DC0C00851EAC000106013BD00B583B00223D5
S31508003DD07F225248018800A8FEF78CFDBDF8000036
S31508003DE04FF6FF7188420EBF4FF4E1600A2190FB3F
S31508003DF0F1F0ADF80000FFF760FBC0071FD500F033
S31508003E0021F801A8FEF776FD9DF80500FF2808BFF2
S31508003E100420811CC9B20829A8BF0721C1F12F02B5
S31508003E20BDF80030C0F12F0002EBD272521000FB31
S31508003E300320C1F12F01B0FBF1F0ADF80000BDF889
S31508003E4000000EBD02237F2235480188704770B5F1
S31508003E500646344C256803F003FBFA2190FBF1F083
S31508003E6070432F303021B0FBF1F0032809D3616D80
S31508003E7041F0010161652168491B0903090B81426B
S31508003E80F9D370BD10B5040004D110BD4FF47A7093
S31508003E90FFF7DDFF2046441E80B20028F6D110BD8C
S31508003EA0704738B50C4620B1012819D003282CD004
S31508003EB02DE01D4D94B11D48844204D0CA210FF24D
S31508003EC0740000F0BDFC03F0CBFA4FF47A71484356
S31508003ED0B0FBF4F0401EB0F5005F0ED2286014E087
S31508003EE05CB103F0BDFA4FF4FA61620801FB0020E9
S31508003EF0B0FBF4F0B0F5003F01D3202032BD0C49E9
S31508003F0000F001024A6040080860002032BD212006
S31508003F1032BD000000BC00401800004010620208D4
S31508003F200E62020838200040100004E020A10700B5
S31508003F3068C800406D6963726F2D636F6D6D6F6E33
S31508003F402D696E7465726E616C2E630038B501203A
S31508003F50FFF7C8FD0020FFF711FFDFF8544220687D
S31508003F6040F00800206003F082FAFFF7F7FE00F041
S31508003F7027F88D78DD608D890560CD89456000F06C
S31508003F8016F8206820F010002060FEF734F903F0D8
S31508003F9005FC03F065FCFFF738FE03F066FABDE89A
S31508003FA0314003F081BA40F2016003F0ADBC088AE3
S31508003FB01060488A5060888A1860C88A586042E04B
S31508003FC07C497D480A78C2604B787C4AD3607C4B32
S31508003FD07047F0B50B68774C0F25646A960005FAAA
S31508003FE006F6344212D0002606EB820724FA07F7B3
S31508003FF0FF0708D5B70005FA07F730F812C0BB4324
S3150800400007EA0C073B43761C042EEDDB0B60F0BD7C
S31508004010F0B50B68674CFF25646AD600B5402C429C
S315080040200FD0002505EBC20624FA06F7FE0705D5CC
S315080040300126AE40175CB3433E4033436D1C082D42
S31508004040F0DB0B60F0BD10B55A4C606A002825D02D
S3150800405000225C49201DFFF7DBFF01225A49201D7B
S31508004060FFF7D6FF02225949201DFFF7D1FF00228C
S31508004070514900F014F80122554900F010F80222BF
S315080040804E4900F00CF80322524900F008F80422C1
S315080040904B4900F004F804F1180032E010BD04F1B1
S315080040A0180096E710B5434C606A002825D0002210
S315080040B044492046FFF7ACFF012243492046FFF753
S315080040C0A7FF022241492046FFF7A2FF00223A49EC
S315080040D000F014F801223E4900F010F80222374990
S315080040E000F00CF803223B4900F008F80422344992
S315080040F000F004F804F10C0003E010BD04F10C0014
S3150800410067E7BDE810400522334962E70320FEF75A
S315080041109EBC80B503F0FAFC0FF2C80109E080B531
S3150800412003F0F8FC0FF2E8010204120E51F822100F
S31508004130C0B201EB800002BD10B503F0E7FC0446EF
S3150800414003F0E8FCC0B208B9012C07D1072C11D836
S31508004150DFE804F004100608080A0C0E002010BD5B
S31508004160092010BD022010BD032010BD0B2010BD74
S31508004170062010BD44F0800010BD0E48007A704736
S315080041800C48807A704716484FF40041C1600821F0
S3150800419001600849887A50B1104800680B7A80098E
S315080041A000F0010083421CBF0872FEF7EFBE70479D
S315080041B000BC00403C1E002000B0004000B4004097
S315080041C000B800400CB000400CB400400CB80040E9
S315080041D004B0004004B4004004B8004008B00040F1
S315080041E014A80040554E4B004649420042544C0024
S315080041F0455854005057520057444700205357001B
S31508004200435253004653480042414400464C54002A
S31508004210E05C0208E45C02083C5D02085C5D02089A
S31508004220645D0208705D02087C5D0208885D02080C
S31508004230905D02089C5D0208AC5D02082A490A687E
S31508004240920992010A600A681043086027484FF4E9
S3150800425000410160002101606420FFF7F8BD2DE9E7
S31508004260F0478046224DD5F80090286840F4004073
S3150800427028601D4F386820F4805038601D4C20781F
S3150800428068B11D48A178627800EB820212F82A2CE0
S31508004290891A00EB880010F82A0C461802E0202636
S315080042A001202070B0B2FFF7C9FF0FF2500A02E0F2
S315080042B0B0B2FFF7C3FF386B042805D0386B400748
S315080042C054BF761E761CF3E7F86A38B184F8018085
S315080042D0A6701FFA89F02860BDE8F08740F2211120
S315080042E0504600F0ADFAE6E7D0100040181000403E
S315080042F01C100040E42F002078270008616E616CCE
S315080043006F6775652D76636F2E6300004FF4FE5256
S31508004310810189B20C20FDF7A4BF2DE9F84F8A4C1C
S31508004320A568ADB200264FF00A080127B9462068ED
S315080043301FFA80FA00F04BFAB0202063DFF80CB2BF
S31508004340DBF800000120FFF782FDB9F1000F11D05C
S31508004350AAF10300874202DAF81C87B213E057462F
S315080043600AF5004020600621092000F0D9F94FF02F
S3150800437000090BE0DBF80000000707D5042FA6BFED
S31508004380F81E87B2002707F5004020601A2EA8BF3E
S315080043906FF0090804DA16F1190FB8BF4FF00A08CA
S315080043A0464436B27019A060DBF800000007C9D58C
S315080043B0012FC7DAB9F1000FC4D1A560C4F800A06F
S315080043C00820CBF800006248006880B2BDE8F28F8A
S315080043D010B560494FF0FF325A4B1C7864B100287B
S315080043E019BF4A605C48486041F211100860D988D4
S315080043F09888BDE8104090E7002819BF4A600A600F
S315080044004860086000F0E3F906210920BDE810407D
S3150800441000F0D7B938B50120FFF7DAFF04460020C7
S31508004420FFF7D6FF05460120FFF7D2FF4042001BE3
S3150800443000EB450000B232BD2DE9F04F83B0474C82
S31508004440A06AADF804002068ADF80200444D28685B
S31508004450ADF800003B4E307858B14FF6FF72002198
S315080044600820FDF7F7FE8046C022C0210820FDF788
S31508004470F8FE3C4F3C48007810B148F2607038604E
S31508004480708840F4404040F04C00F8630220A06277
S315080044900120206040F24C40FFF7D9FC0120E8607B
S315080044A028600020B0804020F080307800B12020BD
S315080044B0FFF72CFFFFF7AEFF83464020B0807F2032
S315080044C0F080FFF723FFFFF7A5FF00F04FF8FE2166
S315080044D001FB00FAABEB090B307850B1484602F005
S315080044E03AFC00F043F880B20AEB8911B1FBF0F010
S315080044F004E000F03CF880B2BAFBF0F080B2401C51
S315080045004FEAC039BDF8000028600020E8600220A4
S315080045102060BDF802002060BDF80400A0620020FB
S31508004520F863307830B14FF6FF721FFA88F1082029
S31508004530FDF797FE40F24C40FFF789FC4FEA194019
S31508004540BDE8FE8FF41F0020C010004018A00040F0
S315080045500070004038100040EEEEFFFF602000407B
S3150800456028100040D0100040171F002081465846EA
S3150800457002F0F1BB3F22410089B201E03F22014629
S315080045800220FDF76EBE2DE9F04F93B0564CE06C55
S31508004590ADF808002068ADF80600544DE86AADF895
S315080045A004004FF6FF7200210120FDF753FEADF817
S315080045B002004FF6FF7200210B20FDF74BFEADF807
S315080045C000004FF40040206000202861686148F22E
S315080045D0020000F08DF84CF68C30E06448F2F000EA
S315080045E0E8624FF4805211460120FDF73AFE4FF675
S315080045F0FF7200210B20FDF734FE0621062000F08D
S31508004600E0F8804600F087F883464CF69C30E06474
S315080046100020FFF7AFFF0621084600F081F80026C4
S31508004620B0B2FFF7A7FF0621062000F079F800F0E0
S3150800463092F803A921F81600761C202EF0DB00F06C
S315080046408AF81020FFF796FF00F065F8A0EB0B003C
S31508004650BDF82C10A1EB0801404301FB01094FF0FE
S31508004660100A112700F050F800F055F800F045F848
S3150800467005DB81461FFA87FA7F1C202FF2DB50469E
S3150800468010280ED10F2700F03FF800F044F800F08C
S3150800469034F806DB81461FFA87FA781E07B2002F20
S315080046A0F1D5BDF80800E064BDF806002060BDF845
S315080046B00400E8624FF6FF72BDF802100120FDF70C
S315080046C0D0FD4FF6FF72BDF800100B20FDF7C9FDAF
S315080046D001202861002000F00BF84FEA4A00C0B21A
S315080046E013B0BDE8F08F0000C0100040181000405D
S315080046F0286040F24C40FFF7AABBA0EB0B004043F2
S3150800470006FB06004845704703A830F81700A0EBDB
S315080047100806B8B22EE70621072000F052B80000B6
S3150800472070B505460E4602F0F9FE3D4C206C20F0A9
S315080047300800206402F000FF01F078FC310341EA2A
S31508004740C51141F00101374A116008212160BDE811
S31508004750704001F071BC2DE9F041334C334D304EB9
S3150800476025E002F0DBFE324804210160306C40F09F
S31508004770080030642F68286840084000286002F066
S31508004780D3FED4F80080206820F04000206002F0B4
S31508004790C7FEC4F800802F6002F0C6FE306C20F019
S315080047A00800306423480421016002F0C5FE306821
S315080047B00007D6D5082030601F48006880B2BDE8DB
S315080047C0F08180B5FFF7ACFFBDE80140C3E71548A7
S315080047D001684908490001607047F8B50746FFF7C0
S315080047E0F4FA044639460320FFF7EBFF0546394637
S315080047F00120FFF7E6FF064639460020FFF7E1FFEE
S3150800480008490A68520852000A60401B0004711BD6
S31508004810B0FBF1F060434000000CF2BD0000000060
S3150800482018A00040047000400080004094ED00E0AD
S3150800483000E100E080E200E00070004042DE7047E0
S3150800484038B504460D4602F01BFE01F0EFFB29467B
S31508004850204603F08FF92B4622460FF268510020B6
S3150800486003F0DEFC29462046BDE83440E6E7DFF8DB
S315080048702C052DE9F84FDFF828550168DFF824B52F
S31508004880DFF82495DFF824A52E1D4FF420687165FE
S3150800489005F18C04016AB165DFF814150968F1653C
S315080048A0416A3166816A7166C16AB166016BF166F1
S315080048B0806B306796F8340040074CBFF76BB76BD0
S315080048C0009703F0C3F8874224BFABF12003BB422D
S315080048D0306518D3BA693264FB697364736DDB0596
S315080048E0DB0D062B13D1524511D34A450FD2128838
S315080048F04DF642639A420AD13268626040F2017804
S315080049007268A26003E00022326472640090DFF8E5
S31508004910A424904202D2104600E0001D584503D256
S315080049200368B3F1CD3FF8D0ABEB0000B0641821B3
S315080049300020F06405F1780003F0BAFC002003E0DB
S31508004940C0B205EB800291670099594522D25BF8FF
S31508004950041D5145F8D34945F6D2CA07F4D50022B5
S3150800496005EB82039B6F8B4203D0521CD2B2062AF8
S31508004970F6DB062AE8D1002814BF401E0520DFE72B
S31508004980716F002205EB8203521CDF6F9F67052AB1
S31508004990F8DB21600146481EC9B20029F0D1706DC6
S315080049A0C005C00D02280AD0032816D0042817D03F
S315080049B0052818D0062819D00C281DD01FE0DFF8C6
S315080049C0F8030168890748BF40F602181CD4006836
S315080049D0C00719D540F2025816E040F6012813E040
S315080049E040F6022810E040F603280DE0B8F5206FDF
S315080049F00AD140F6042807E040F6052804E018B175
S31508004A00242838BF40F607284046BDE8F28F2DE92E
S31508004A10F04FDFF88C538046A86B410785B007D561
S31508004A20296C2F6D0FF2B03603910024A14607E0DA
S31508004A30E96BEF6C0FF2A836DFF8689303916C6D9B
S31508004A4000074CBF0FF2A0320FF2A432B9EB040AEA
S31508004A5007D064204FEA5A0100FB0710B0FBFAFBA7
S31508004A6001E04FF0000B03980290CDF804900094F3
S31508004A7033460FF28431404603F069FB1FFA8AF089
S31508004A80019000961FFA8BF3BAB20FF29C3140469A
S31508004A9003F05DFB95F8380040070CD4AAF198009E
S31508004AA0874208D1686DC349884204D20FF2B431EF
S31508004AB0404603F04CFB0398814528BFA04205D227
S31508004AC032460FF2CC31404603F041FB404603F034
S31508004AD095FB286EF0B10FF2D8310FF28874404674
S31508004AE003F02DFB0026A8A7286E20FA06F1C807B2
S31508004AF007D554F82620107818B13946404603F0F1
S31508004B001EFB761C112EEFDB404605B0BDE8F04FC4
S31508004B1003F001BB404605B0BDE8F04F0FF2C031C7
S31508004B2003F015BB2DE9F843044602F0F3FF40F203
S31508004B300151401AA14D0FF2AC570FF2C4560FF2AD
S31508004B40AC680FF2244916D0401E17D040F2FF1168
S31508004B50401A35D04FF44071401A39D0401E53D010
S31508004B60401E72D0401E00F0AF80401E00F0C68086
S31508004B70401E06D0C0E00FF2803142E00FF2B83195
S31508004B80BEE0E86C012806D0032807D0042807D021
S31508004B90052808D00AE00FF2EC3608E07BA606E006
S31508004BA00FF2E83603E00FF2EC3600E078A60FF2D3
S31508004BB0EC3100F0B8F82B6D0FF20841324603E0ED
S31508004BC02B6DEA6C0FF21441204603F0C0FA8EE012
S31508004BD00FF2244100F0A7F8686AC0F3400018B144
S31508004BE00FF22C4100F09FF8686AC0F3807018B184
S31508004BF00FF2584100F097F8686AC00F77D00FF2A5
S31508004C00804100F090F872E00FF2B04100F08BF8A6
S31508004C1095F8200010F0030F01D000F07FF8286AFD
S31508004C20C0F3C01018B1EA6A394600F079F80027CF
S31508004C3000F06FF805D500F068F810B1314600F0BD
S31508004C406FF87F1C082FF3DB51E00FF2BC4100F030
S31508004C506AF800F063F8286AC0F3802018B10FF2EA
S31508004C60C04100F060F8286AC0F3C03018B1EA6A9B
S31508004C70394600F055F8082700F04BF805D500F03E
S31508004C8044F810B1314600F04BF87F1C102FF3DBC7
S31508004C9095F82000000603D10FF2CC4100F043F846
S31508004CA001270FF2F4460FF2AC58286B20FA07F1E9
S31508004CB0C80705D500F029F810B1314600F030F8DC
S31508004CC07F1C042FF1DB12E00FF2D44100F02BF821
S31508004CD000F024F8102700F01CF805D500F015F8A8
S31508004CE010B1314600F01CF87F1C1A2FF3DB204662
S31508004CF0BDE8F24303F082BABDE8F1830FF2BC4186
S31508004D0000F011F800F00AF8F1E758F827201078B3
S31508004D107047286A20FA07F1C80770472A68494683
S31508004D20204603F014BA204603F011BA2DE9F047DD
S31508004D308046DFF88CA00FF270560FF2A4490025C2
S31508004D4014A715A406E0404603F0F9F9404603F017
S31508004D5055FA6D1C3078A8B15AF8043B32464946D4
S31508004D60404603F0ECF916F8010B0028FBD1307821
S31508004D7000281EBFEDB205F00300032814BF214624
S31508004D803946E0E7BDE8F087202570004144430036
S31508004D903F3F00000D0A00002C20000004ED00E053
S31508004DA000000020781C0020EC540208902100081E
S31508004DB000E300E0980000201CA00040440000200A
S31508004DC0040000200D0A5B4153534552543A25709E
S31508004DD03A25645D0D0A000070726F63657373008F
S31508004DE06D61696E000000005468726561640000B8
S31508004DF048616E646C6572002570206D6F6465206D
S31508004E007573696E6720257020737461636B20283B
S31508004E1025347820746F20253478292C2053502087
S31508004E203D20253478000000257520627974657365
S31508004E3020757365642028257525252920696E2027
S31508004E40257020737461636B20286F7574206F66F4
S31508004E5020257520627974657320746F74616C29D6
S31508004E6000000000537461636B205F6D61795F20F9
S31508004E7068617665207573656420757020746F2087
S31508004E803130302525206F6620746F74616C2E00D2
S31508004E905350206973206F75747369646520257093
S31508004EA020737461636B2072616E67652100000070
S31508004EB0496E74657272757074732061637469766D
S31508004EC06520286F72207072652D656D7074656433
S31508004ED020616E6420737461636B6564293A00000F
S31508004EE04E6F20696E746572727570747320616393
S31508004EF07469766500000000526573657420636105
S31508004F007573653A205761746368646F67206578BE
S31508004F1070697265642C206E6F2072656C696162B7
S31508004F206C6520657874726120696E666F726D6152
S31508004F3074696F6E000000005265736574206361C2
S31508004F407573653A205761746368646F6720636197
S31508004F5075676874207769746820656E68616E6322
S31508004F60656420696E666F00496E73747275637442
S31508004F70696F6E20616464726573733A20253478AC
S31508004F800000000053433120527800004D41432071
S31508004F9052780000534332205278000052657365F8
S31508004FA0742063617573653A20444D412070726FB1
S31508004FB074656374696F6E2076696F6C6174696F66
S31508004FC06E000000444D413A2025702C206164642F
S31508004FD0726573733A20253478000000526573654C
S31508004FE0742063617573653A204173736572742022
S31508004FF025703A2564000000526573657420636164
S315080050007573653A2048617264204661756C740050
S31508005010484653522E5645435454424C3A206572DC
S31508005020726F722072656164696E67207665637453
S315080050306F72207461626C6520666F7220616E20E3
S31508005040657863657074696F6E0000004846535250
S315080050502E464F524345443A20636F6E666967751C
S315080050607261626C65206661756C7420636F756C1D
S3150800507064206E6F742061637469766174650000DC
S31508005080484653522E44454255474556543A20669B
S3150800509061756C742072656C6174656420746F2028
S315080050A06465627567202D20652E672E2C2065782D
S315080050B065637574656420424B5054005265736588
S315080050C0742063617573653A204D656D6F7279203A
S315080050D04D616E6167656D656E74204661756C74A9
S315080050E000000000496C6C6567616C20616363654C
S315080050F0737320616464726573733A20253478008B
S31508005100434653522E2570005265736574206361B9
S315080051107573653A20427573204661756C74000094
S3150800512041646472657373206973206F6620616ECB
S3150800513020696E737472756374696F6E2061667424
S31508005140657220627573206661756C74206F63637F
S3150800515075727265642C206E6F742074686520639E
S31508005160617573652E000000434653522E286E6FF4
S315080051706E6529206C6F6164206F722073746F727C
S315080051806520617420616E20696C6C6567616C20AE
S315080051906164647265737300414653522E2570002C
S315080051A052657365742063617573653A205573613A
S315080051B06765204661756C7400000000526573656A
S315080051C0742063617573653A204465627567204D7E
S315080051D06F6E69746F72204661756C74000000000A
S315080051E02570203D2025347800000000EC57020881
S315080051F02C5802086458020868580208AC58020875
S315080052006458020864580208E8580208185902083F
S31508005210485902086C59020894590208D4590208D8
S315080052206458020864580208105A0208405A0208CC
S31508005230785A0208B45A0208E45A0208645802085E
S315080052406458020864580208645802081C5B02087D
S315080052504C5B0208645802088C5B0208D05B0208A3
S31508005260105C02084C5C0208545C02085C5C02088C
S31508005270685C0208745C0208805C0208845C0208A8
S31508005280885C0208945C0208A05C0208A85C020814
S31508005290B05C0208B45C0208BC5C0208C45C020884
S315080052A0CC5C0208D45C02085230005231005232FB
S315080052B0005233005234005235005236005237003D
S315080052C052380052390052313000523131005231D1
S315080052D03200523133284C5229004D535000505356
S315080052E0500050430078505352004D535020757368
S315080052F065640050535020757365640043535441E8
S31508005300434B20626F74746F6D00494353520053C8
S315080053104843535200494E545F4143544956450049
S315080053204346535200484653520044465352004D92
S315080053304D41522F42464152004146535200526552
S3150800534074300052657431005265743200526574C7
S315080053503300526574340052657435004461743004
S315080053600044617431000000814233D2101851188C
S31508005370401E491E10E011F8013900F80139121FC4
S3150800538011F8013900F8013911F8013900F8013925
S3150800539011F8013900F8013992B2042AEBDA92B20F
S315080053A0002A1EBF11F8013900F80139521EF6D13C
S315080053B0704711F8013B00F8013B121F11F8013B39
S315080053C000F8013B11F8013B00F8013B11F8013BDD
S315080053D000F8013B92B2042AEBDA92B2002A1EBF09
S315080053E011F8013B00F8013B521EF6D17047130035
S315080053F003D00A46194602F05FBF704710B500E0B1
S31508005400521E92B21AB100F00FF8F9D012E000203D
S3150800541010BD10B500E0521E92B21AB100F004F8A1
S31508005420F9D007E0002010BD10F8013B11F8014B38
S31508005430A3427047181B40B210BD00002DE9F9477A
S3150800544088B01F22FF2100A8FFF7D1FFDFF894904C
S315080054508A22FF214846FFF7CAFF3E254FF01F0A5A
S3150800546000270FF290082048385C411C01EBD171E7
S315080054704C101E497E5CFF2803D16F214046FFF77A
S31508005480DFF97F2E03DB70214046FFF7D9F918486C
S31508005490385C00B11934601C012E1CBF29F817A00E
S315080054A0B2447F1C1F2F00FB0655DCDB40F21C4470
S315080054B0A5420ED301F0E4FF00F0B8FD23462A46C4
S315080054C00FF24001002002F0ABFE9B214046FFF799
S315080054D0B7F99DF8200000A900F0F1F80AB0BDE878
S315080054E0F0870000B82B0020745E0208945E02085C
S315080054F0545E020873696D2D656570726F6D2E6353
S31508005500000000000D0A4552524F523A2053696D69
S315080055104545206461746120746F6F206C61726701
S31508005520652E2020436F6D70696C696E67207769F8
S31508005530746820256420776F72647320636F6E73B6
S31508005540756D65642E20204D617820616C6C6F77CF
S3150800555065642069732025642E0D0A0010B5DFF8EE
S31508005560643ADFF8644A2488001B03EB40000023F2
S3150800557004E030F8134021F813405B1C9342F8DB33
S31508005580002010BD2DE9F04182B004460D461646AE
S315080055900027DFF8308A01E0B81CC7B2B7421ADA2A
S315080055A078194078795D01EB0020ADF800000122FA
S315080055B000A907EBD77004EB6000DFF80C3A1B88EC
S315080055C0C01A08EB400002F0F6FE0028E4D002F00C
S315080055D04AFF002000E00120BDE8F681F8B5044640
S315080055E00E46154600270DE000F019F8761C04EB68
S315080055F04700BDF80010090A4170BDF8000004F81C
S3150800560017007F1CB7EB550FEEDBE80706D500F051
S3150800561006F82819BDF8001000F8011CF1BD012292
S3150800562000A9B0B29AE7DFF89C19DFF89C2912881E
S31508005630801A01EB4001022002F084BEDFF88C19C3
S31508005640415CDFF88C29825CDFF88839C05C10B1D0
S3150800565002F5997292B241EAC21080B2704710B54B
S31508005660DFF8743903EB4002DFF86049005D012872
S3150800567001D1104610BD1088081803EB400010BD74
S3150800568038B50C46DFF854190D782A462146FFF737
S3150800569065FF208800281CBF4FF6FF7188420AD094
S315080056A0012000E0401CC0B2A84206D234F810100F
S315080056B022889142F6D0002032BD012032BD2DE964
S315080056C0F04F9DB089460446DFF8147900203870FB
S315080056D07880DFF810090088ADF8000008A9FFF700
S315080056E0CFFF824601207870DFF8FC080588DFF8CE
S315080056F0FC08B0F80080BDF80060DFF8CC08008828
S31508005700ADF8040083460AA9FFF7BAFFD0B1BAF18B
S31508005710000F43D04FF6FE70BDF82010814204D129
S31508005720BDF82800012806D10FE0012904BFBDF8FD
S315080057302810814232D0BDF82000BDF828108842D2
S315080057402CD202E0BAF1000F27D00020787030463C
S31508005750CDF808B00795CDF81480DFF880180978D9
S315080057608DF806100818ADF8100000F05DFABDF8BF
S315080057701000FFF7F3FEDFF8780800880690BDF8FA
S315080057800200000B4FF6FF789DF80610884218BFF6
S315080057900F2800D114B3002515E0012478780128D4
S315080057A0D5D158460296CDF81C800595D5E70698BA
S315080057B005FB00F4BDF8040000F028FCBDF8000065
S315080057C000F024FC6D1C9DF806008542EFDB0120E5
S315080057D038704D2002F047FE0025FBE0BDF810505A
S315080057E000F022FA2846FFF7B9FE6E1CBDF8020043
S315080057F0C043C0B2ADF80200DFF8F8070588BDF867
S315080058000200A84218BF01244FF0000A1FE0401CFE
S31508005810C1B2A94217D2C0B28346DFF8DC1731F805
S315080058201B10BDF80E209142F1D1FFF707FF4FF686
S3150800583080710840BDF80C104FF6807211408842FE
S3150800584008BF0BF809A00AF101001FFA80FABDF893
S315080058500200824507DA022203A9B0B2FFF77EFEEC
S31508005860B61C0020D4E7002100E0491CA94219DA39
S3150800587011F809008842F8D0012413E02AF81160CB
S31508005880012201A9BDF8103003EB4000401C00F0CE
S31508005890D0FABDF80400C0F3C710401C00EBD07066
S315080058A006EB6006DFF830A7B6B20598864213DA2B
S315080058B0012200A93046FFF751FEBDF80000404519
S315080058C00AD0761C000ABDF8001001F07F02BDF868
S315080058D00210884202DB012400252BE0002100E0AB
S315080058E0491CA942CCDA11F809308342F8D1C9B269
S315080058F0FF29C5D07F2A0CBF4FF0000C9446DFF86D
S31508005900CC36CB5C9C4509DABDF800C0CCF3C01C8C
S31508005910DFF8C0E611F80EE0F44501D00124AFE740
S31508005920012BABD07F2A08BF00223AF81110511874
S31508005930A4E76D1CDFF8C4060088854204DA3AF845
S3150800594015004045F5D101247E80B5B205988542FB
S315080059500ADA012200A92846FFF700FE6E1CBDF8E8
S3150800596000004045F1D034E7002CFCD101220CA9F7
S31508005970029800F05EFABDF8300040450DD105E00A
S31508005980401C80B2202813D32034A4B20799029A67
S31508005990891A8C4205DB0120387000201DB0BDE84D
S315080059A0F08FA51820220CA9A8B2FFF7D7FD002072
S315080059B00CA931F810104145E2D0A8B2FFF733FE22
S315080059C0203CA4B2E0E70298069905FB010000F026
S315080059D01EFB6D1C9DF806008542F4DB012038701D
S315080059E0414600F043F818B100F022F90028D4D156
S315080059F00120D3E72DE9F84504460D4616469A4692
S31508005A0031462846FFF72BFEB0F80080DFF8C07550
S31508005A10DFF8E01509888D420AD27F2E08BF0026D6
S31508005A20DFF8A805285C864202DAE85D824503D0DD
S31508005A3040F2864100F0F9F9DFF89805285C68B16C
S31508005A404146284600F028FAE95D012908BF20707A
S31508005A500AD0022914BF2060208005E0524641463C
S31508005A602046BDE8F845B9E5BDE8F1852DE9F34FCF
S31508005A7083B0DFF854050488DFF864054078002809
S31508005A801ABFDFF8600500882046DFF85015097848
S31508005A900D18ADB2DFF85C050088ADF80800C04304
S31508005AA0C0B200EB013000F55060ADF8020000F01E
S31508005AB0CAF92B1B00F0C3F96E1CB6B2002832D106
S31508005AC00025DFF8347510E0E8B2FFF7B7FDADF84A
S31508005AD0040037F81500ADF80600022200F0ACF90C
S31508005AE0002820D1B61CB6B26D1CBDF80800854248
S31508005AF0EADB002500E06D1CBDF80800854280F24F
S31508005B008E804FF0000A1AE000F08EF81FFA89F02E
S31508005B10FFF724FD09F1010900F095F9BB191B1BD4
S31508005B2000F08DF9002874D17F1CFFB25F45EBDBCE
S31508005B30DFF8CC04285C8619B6B20AF1010ADFF848
S31508005B408C0415F800B05FFA8AFADA45D3D25146C2
S31508005B50E8B2FFF784FD8046B8F80090DFF87404D1
S31508005B602F5CF80140EA0520ADF80000BBF1010FF3
S31508005B70BDF800000CBF40F07F004AEA0000ADF80F
S31508005B800000DFF84004311B00EB4100711C89B2AC
S31508005B9001914FF6FF7189451EBFBDF80010BDF88B
S31508005BA01020914218D19DF80C100029C5D0012269
S31508005BB000A902F000FC019E58BBA8F80060DFF8B7
S31508005BC010042A5CDFF83C0450F82510B0B2FFF741
S31508005BD0D9FC0028ACD11FE0DFF8F413695C491C36
S31508005BE001EBD171C9054FEA116B012200A902F038
S31508005BF0E2FB019E68B9A8F80060002F95D04946D7
S31508005C00E8B200F049F901905A4600F015F9002863
S31508005C108ED002F028FC002005B0BDE8F08FDFF832
S31508005C20C00346800120F7E701220DF10201704703
S31508005C302DE9F04182B0DFF8AC030688DFF8880367
S31508005C400488DFF89C536878002812BF204630463F
S31508005C502646012200A9FFF781FCBDF800000128AD
S31508005C600CBF4FF6FE70401EADF80000DFF86C035F
S31508005C700778DFF850833846471E70B1012200A91D
S31508005C80BFB2B819001B08EB400002F094FB0028CD
S31508005C90F1D002F0E8FB002007E06978481E804151
S31508005CA0C00F6870002028700120BDE8F6812DE934
S31508005CB0FE4F83460C4617469A4600208DF8040088
S31508005CC0012539465846FFF7CAFC81465E46C9494A
S31508005CD009888B450AD27F2F08BF0027BB48305C4E
S31508005CE0874203DABA48305C824503D040F2A951AC
S31508005CF000F09BF8BA4F787820B1BB48B0F800801E
S31508005D00B14803E0B948B0F80080B6480088397849
S31508005D1049B97988081ABC4909888842B4BF43201A
S31508005D20442002F0A0FBB9F80010AA48305C78B10C
S31508005D30584600F0B1F8BAF1010F08BF217804D02F
S31508005D40BAF1020F0CBF2188216881426BD02BE083
S31508005D5002914FF0000B23E0012200A902980BEBF9
S31508005D60DB7300EB630000F064F80BEB040040788B
S31508005D701BF8041001EB002080B2AAF101018B4543
S31508005D8005D1C0B2BDF80010C9B2ADF80010BDF813
S31508005D900010884218BF00250BF102005FFA80FB4D
S31508005DA0D345D9DB002D3ED1FFF73EFFB9F80000F9
S31508005DB0401E00F03EF89248355C7888A8F101014B
S31508005DC0491B814200DB60B9387808B945201CE0D8
S31508005DD0BDF802100020FFF749FE20B301208DF818
S31508005DE004007888401C78807949725C214680B224
S31508005DF0FFF7C8FBB8B100F026F87B885B1E724C2B
S31508005E0024881B1B00F01BF810B102F02CFB0AE0DB
S31508005E109DF8040010B1FFF70BFF20B17888A9F8A8
S31508005E20000028187880BDE8F78F0FF2E810FEF713
S31508005E3007BD80B2FFF792BB01A96248331B00EB8E
S31508005E40430002F0B8BA01220DF102015D4870471D
S31508005E5070B582B0044600251926012200A9A0B211
S31508005E60FFF77CFB641CBDF8000048B14FF47F4186
S31508005E70401A02D0FF3806D007E0681C40B276BD4B
S31508005E80AD1C761EE9D168B276BDBDF80000C0B279
S31508005E9000B96D1CE843F1E738B50C4600210091BE
S31508005EA04B49455C2A46214600A8FFF797FB681C24
S31508005EB000EBD07004EB600080B2FFF7C9FF002842
S31508005EC048BFC043009940B2401832BDF0B583B010
S31508005ED004462546404830F81560464909888C42EC
S31508005EE002D23C48285C18B940F2A961FFF79DFF29
S31508005EF037482D5C681C00EBD07006EB6007B8B21B
S31508005F00FFF7A6FF322814D2C1074CBF00214FF471
S31508005F107F41ADF80410012201A92A4BBFB207EB55
S31508005F206000294F3F88C01B03EB400002F043FA8C
S31508005F3060B131462046FFF7AFFF0090401C009045
S31508005F402B467F2200A92046FFF7B1FEF7BDF8B51C
S31508005F50234C2078002832D11B4805886078002811
S31508005F601ABF204806882E461C4807783846471E1A
S31508005F7002281DD3012200A9FFB2B819FFF759FF5D
S31508005F80BDF800000028F1D01948008807FB00601A
S31508005F9000F03DF80020ADF80000012200A90948EC
S31508005FA0BB195B1BFFF74BFF48B102F05CFAF1BD6A
S31508005FB03046FFF738FBFFB20FB901202070F1BD5C
S31508005FC00000000000E00208E45D0208945E020892
S31508005FD0745E0208545E0208B82B0020E05D0208D1
S31508005FE0AC2F0020E85D0208E65D0208EA5D0208BB
S31508005FF0E25D0208EE5D0208145E0208F05D020822
S31508006000F45D0208F8600208EC5D0208201880B208
S31508006010FFF709BB73696D2D656570726F6D2D6924
S315080060206E7465726E616C2E63000000EFF311806A
S31508006030602181F31188704780F31188704700004A
S31508006040DFF8880500210170FF210172017370478E
S31508006050F8B5044602F04AFA0546DFF874050688DC
S31508006060DFF86875204602F04FFBB0F5006F1CD1CB
S31508006070204602F06BFB00F0B9FAFF2813D0DFF8D0
S315080060805415096831F8102042F0200221F8102032
S31508006090214607F10C0002F0DEFE387890B1A81907
S315080060A0398A461A13E09320F2BDFF2107F108004A
S315080060B002F0FCFE052803D2214607F10800EAE7AC
S315080060C03920F2BD3D823146384602F050FFB2B261
S315080060D00321204602F093FA03220521204602F006
S315080060E099FA204602F00EFC0020F2BDF8B50446E7
S315080060F0DFF8D804007AFF2813D0DFF8DC542968C3
S31508006100465C3746384602F011FB0822014620460F
S31508006110FFF774F908B90120F2BD28683F5CB74259
S31508006120F0D10020F2BDF8B5044602F095FA050B49
S31508006130204602F021FB0646204602F00BFBB0F58E
S31508006140404F15D1E8073BD53146002000F081F9CC
S315080061500446FF2C34D0002103F018F880B300F071
S31508006160A1F940F080020521204602F053FA27E003
S31508006170304602F010FE00F039FA0446FF2C01D131
S315080061800020F2BD01200021224603F005FADFF8BF
S315080061904C24D2E9006706430F43C2E90067EB07C0
S315080061A00ED5DFF830341B6833F814304FF4FE642C
S315080061B0234205D0D2E9024520432943C2E9020118
S315080061C00120F2BD38B5044602F09EFAB0F5006F1C
S315080061D00CBF01250025204602F0A8FA04462146F0
S315080061E0284600F036F9FF2810D18DB1204602F076
S315080061F0D2FD00F0FBF9FF280AD0DFF8D8130968AA
S3150800620031F810004FF4FA61084201D0012032BD7E
S31508006210002032BD2DE9FC4107460C46DFF8AC5399
S3150800622002F072FAB0F5006F0CBF05F10C0005F12B
S3150800623008000078FF2848D0DFF89C130968405CFE
S315080062400646B7423ED1FFF7F1FE804605213046A5
S3150800625002F0E7F900F07F00471EFAB20521304642
S3150800626002F0D8F9002C18BF312C01D0F8B210BBB7
S31508006270FFF7DCFE0746F0B202F046FAB0F5006F0B
S31508006280F1B206D105F10C0002F010FE00F00EF98D
S3150800629003E005F1080002F009FE3846FFF7CCFED8
S315080062A04046FFF7C9FE2146304604F04DF8304611
S315080062B002F036FB04E000F0F9F84046FFF7BCFEB2
S315080062C0012003E0765C8642BBD10020BDE8F6815A
S315080062D038B502F00BF9BD4C218A421A4FF6FF7504
S315080062E0ADF80050208200A990B200F000F9BDF880
S315080062F00000A84202D10020207031BD0146204688
S3150800630002F035FE31BD00214FF6FF70EFE02DE9B2
S31508006310F84FDFF8C892D9E90001002908BF00281C
S3150800632000F0908000260124B2460027B846FFF701
S315080063307DFE8446D9E9000104EA00021AEA01034F
S3150800634008BF002A18D00127E5436FEA0A0B284040
S3150800635001EA0B01C9E90001D9E9022304EA0200AE
S315080063601AEA030108BF002806D0B84602EA050063
S3150800637003EA0B01C9E902016046FFF75DFE002F3B
S3150800638051D09448006830F8160081074BD59449D7
S31508006390096831F81670B8F1000F05D000F4987145
S315080063A0102908BF012500D000258E49096800225A
S315080063B07254B8F1000F25D0800623D58DF80070E9
S315080063C0380A8DF8010000A9012000F042F880463D
S315080063D0B8F1FF0F07D100F037F84FF6DF7211401A
S315080063E020F816101BE0002102F0D0FEB8B10521F6
S315080063F0404602F016F940F080020521404602F0B8
S3150800640009F90CE085F001004146014207D000F089
S315080064101BF841F4006120F8161004F03BFB2946EE
S31508006420384602F017F8761C4FEA4A0040EAD47A52
S315080064306400402E06DAD9E90001002908BF0028C1
S315080064407FF473AFBDE8F18F6248006830F8161024
S3150800645070472DE9F04188465C49002819BF01F1CB
S315080064600C00022501F1080008250078FF2816D03F
S31508006470594E3168475C3C4600F014F800060AD4C9
S31508006480204602F053F901462A464046FEF7B6FF73
S3150800649008B9204604E03068245CBC42ECD1FF20F1
S315080064A0BDE8F0810521204602F0BBB870B5002191
S315080064B0202004F06CFD4548007BFF2816D0464C8A
S315080064C02168455C2E46304602F040F900F08EF809
S315080064D0FF2807D03F49096831F8102042F020020A
S315080064E021F810202068365CAE42ECD170BD2DE94B
S315080064F0F84F80460D460FF2F00000680090DFF86E
S31508006500CCB00BF10804344F01E00BF10C04FFF793
S315080065108DFD064606E0204602F0B2FC514600A86C
S3150800652002F099FC204602F0F5FC48B92078396853
S3150800653010F801A00321504602F058F88045EAD227
S315080065400BF10C00844208BFFFF7B0FF3046FFF797
S3150800655073FD2078FF2819D0396810F80190CA46CB
S315080065600321504602F042F8A0EB0806B2B2032116
S31508006570504602F044F82888B6B2864288BF0646D6
S315080065802E8038681AF800A0CA45E9D10BF10C002C
S315080065908442BAD100A802F0BDFCA8B900A802F04E
S315080065A06FFC044602F062F800F0E8F8FFF77AFF9D
S315080065B0000603D44221204603F0C6FE204602F018
S315080065C0AFF900F0DCF8E5E7BDE8F18F38200020E8
S315080065D02A1E0020C81D0020B81D00208820002083
S315080065E0C01D0020CC1D0020FF000000F8B50600E5
S315080065F00C4C276814D0FFF719FD0B4D2978226833
S3150800660022F8116037F8021BB142FBD1FFF714FDDF
S31508006610B81E2168401AC0052978000E884200D1A4
S31508006620FF20F2BDC01D0020C41D002010B56A4819
S3150800663000686A4C2060606048220021FEF7D7FE99
S31508006640206867490978017020680021017320686D
S31508006650417320680B21817320680321C173206868
S315080066604FF6FE7101824FF6FF71418200F08CFBF6
S315080066702168087600F088FB2168487600F084FBDC
S3150800668021688876206857490978C176206856496E
S31508006690096881625549097880F82C1020685449A0
S315080066A00968016310BD10B5FBF7C6FF4B4C61685E
S315080066B0897B884203D00846FBF7B6FF50B9FBF73B
S315080066C0BEFF0146606890F90F00814204D0FBF7CF
S315080066D0BAFF08B1012010BD6068008AFDF77CF892
S315080066E06068408AFDF780F86068007B012818BF5B
S315080066F00020FDF75BF8002010BD10B53D4C0020CA
S31508006700207004F0CEFB20B92046BDE8104002F008
S3150800671023BC05F009F808B105F035F851E080B555
S31508006720002000F015F828B1002000F005F808B19F
S31508006730002002BDFF2002BD28480068407B0228D1
S315080067401CBF1128432801D101207047002070473B
S3150800675022480068017B04298041C00F7047002049
S315080067607047002070477047704700207047012027
S315080067707047704700207047002070477047704781
S31508006780002070470020704780B50020FFF7D4FF2F
S3150800679030B112480068007B032801D2002002BDF0
S315080067A0FF2002BD10B5040004D0D9210FF26800FD
S315080067B0FEF746F848200849096800FB041007490F
S315080067C04860BDE810406EE704484068008A704794
S315080067D002484068408A7047EC1D0020B02C002013
S315080067E0251E0020261E0020F41D0020F81D00206E
S315080067F0FC1D0020A02C00207047002070470020B8
S31508006800704702F0FABC7047704701F01BBE05F0EE
S31508006810FEB805F01BBA0000656D6265722D6D75D0
S315080068206C74692D6E6574776F726B2D73747562EF
S315080068302E63000070B504460D461646FCF79CFF0D
S3150800684038B16078002E14BF40F0200000F0DF0059
S3150800685060702946204602F0E6F8FF2822D09C4CB4
S31508006860014604F10C0002F0F6FA2088401C20804C
S31508006870618880B281420BD2A088401CA08004F1B6
S315080068800C0002F0FDFA02F04BF82088401E20802A
S31508006890608821888842F2D38E480078BDE8704027
S315080068A002F05BBC70BD2DE9F04E86B004460020B0
S315080068B08DF80500FFF7BAFB854D2988491E298002
S315080068C0FFF7BAFB204601F0B7FF90F8009090F862
S315080068D001A00020009008237F480068205CA0F1F2
S315080068E00802D2B2214602A802F0B7F802AE7078C2
S315080068F0FFF744FF7948007898B1A86800280FD0B8
S31508006900F078FCF7E1FB4946FCF7E5FB024696F909
S31508006910020000F166035BB24946204600F0BCF867
S3150800692094E00AF0070002282DD0FF208DF8040015
S31508006930204601F081FF00F1010B584601F0C9FE1F
S315080069400546A9EB0500801E47B2002F06D520464E
S3150800695001F0E6FFFFF713FF002081E001A9584682
S3150800696005F0FAFA002874D10AF0070001280BD1BD
S3150800697005EB0B019DF8040004F00BF820B99DF80F
S31508006980040001F0CDFF64E09DF80400524909684F
S3150800699010F801A05249096844544F480068205C21
S315080069A000F12001C9B29DF8040001F04BFF9DF8E3
S315080069B0040001F056FE00F00C0004281CBFEF1975
S315080069C0002578B280B200906B1C9BB222465146D5
S315080069D09DF8040002F00DFA07EB0A01C9B29DF80A
S315080069E0040002F0ECF870783E490978884204D32E
S315080069F0BD210FF2F800FDF723FF9DF8040001F012
S31508006A002BFE8004800C717840EA813189B29DF8AA
S31508006A10040001F023FEF078FCF756FB4946FCF724
S31508006A205AFB0246032100F01EF8B07800F1660210
S31508006A30D2B2042100F017F89DF80820052100F0CD
S31508006A4012F89DF80440204602F0DDFC01208DF87E
S31508006A500500204601F064FFFFF791FE9DF805004A
S31508006A6006B0BDE8F08E9DF8040001F0D3BD10B560
S31508006A70174CA18829B1C9B21D20FFF7CAFE00200C
S31508006A80A08004F10C0002F0FBF9FF2803D0FFF701
S31508006A900AFF0028F5D010BD30B5A1B014461D4632
S31508006AA0002200924B1CDBB2014601A801F0D5FF7B
S31508006AB0FFF75FFE2A46214601A8054B9B689847C3
S31508006AC0FFF75DFE21B030BD074802F023BA00008B
S31508006AD060200020D92F0020AC1D0020851F002033
S31508006AE0B41D0020F01D00206C2000206D61632D70
S31508006AF0726563656976652E6300000038B50446DD
S31508006B000D46012005F008FB5A48002D12BF00214A
S31508006B100178491C0170584844705848FCF706FB30
S31508006B200020BDE8324005F0F7BA10B51446A8B300
S31508006B30402820D0882818BF892833D08D2828D007
S31508006B408F2836D14E48007804280DD144B14D48D7
S31508006B500221017040F60620BDE8104005F0E4BAAF
S31508006B60FCF7B0FD312020E0FCF7ACFD002C0CBF93
S31508006B703120002019E03F4801784078814204D24C
S31508006B8000210120BDE81040B8E7FCF79BFD402036
S31508006B900BE001212020FFF73CFE05E0FCF792FD03
S31508006BA0002002E0FCF78EFD8D20BDE8104002F0C3
S31508006BB0D0BBD0210FF2E400BDE81040FDF740BE7F
S31508006BC030480078022800D0704780B52E480078F3
S31508006BD0042807D00C280ED12C480078022818BFA4
S31508006BE07C2808D105F0BBFAFCF76CFD0020BDE84F
S31508006BF0024002F0AEBB01BD38B50024FFF716FA15
S31508006C0005462048007810B9FCF7A6F90446284638
S31508006C10FFF712FA002C1CBFBDE8314001F021BC79
S31508006C2031BD80B5FFF7E8FF14211948BDE80440D7
S31508006C3002F0A4B940F20D110FF26000FDF700BE94
S31508006C4038B5144C2068216C01EA0005ADB2A807D6
S31508006C5006D5206C20F0020020640F48012101703F
S31508006C60680705D5206C20F00400206403F0F4FFC3
S31508006C70256031BD71200020781F0020802E00205D
S31508006C808F1F0020742E0020302000203120002085
S31508006C90802F002008A00040DB2F00206D61632DA7
S31508006CA0656D3235302E630038B504461B4D2146D6
S31508006CB000F03DF8E860211D00F039F8A86004F1FD
S31508006CC0080100F034F8686004F10C0100F02FF8B0
S31508006CD0286031BD7047F8B50446114D80202860FC
S31508006CE0104E062030600720286030688007FCD5E3
S31508006CF0002704EB870100F01AF8A8627F1C042F0E
S31508006D00F7D330684007FCD500262A6B04EB8601CA
S31508006D1000F00AF8761C042EF7D3F1BD383000408F
S31508006D200030004010A00040002005F02BBA0020DB
S31508006D3005F036BA70B504460D46FFF777F90646EC
S31508006D402846FFF7B1FF2046FFF7C5FF3046BDE8E6
S31508006D507040FFF771B9002848BF404270470000ED
S31508006D6081B209B94BF6EF610E4A000C08BF4FF61F
S31508006D70CE201180508070470288130448BF4A40CD
S31508006D80510001801046704738B5064C62212046EE
S31508006D90FFF7F2FF054641F20B01A01CFFF7ECFFD7
S31508006DA0684032BDBA1E0020EFF31180602880418A
S31508006DB0C043C00F70470000002181F31188704757
S31508006DC02DE9F04FDFF8004699B0824660681890C2
S31508006DD0BAF1070F08BF4FF0030A04D0BAF1080F3B
S31508006DE008BF4FF0020ADFF8E4653068716840EAC8
S31508006DF00120B16840EA014000907068400703D559
S31508006E00E06940F00200E0613068400703D5E069B8
S31508006E1040F00400E0610098316920FA01F2D007D9
S31508006E2003D5E06940F00800E0610020DFF89475BA
S31508006E30DFF89C857860BAF1010F00F06882C0F02F
S31508006E408E82BAF1030F1ED005D3BAF1040F40F0B3
S31508006E508682606017E0D8F84000C00703D5E0696D
S31508006E6040F04000E061D8F84000400703D5E069EB
S31508006E7040F02000E061D8F84000800703D5E069BB
S31508006E8040F01000E061FFF7D1F800F006FB8DF83E
S31508006E905C004FF0000BD8F84000DFF83895DFF8B3
S31508006EA03855DFF83815DFF838251690D8F8440035
S31508006EB01590D9F84C001490D9F850001390D9F8C9
S31508006EC054001290D9F858001190DFF81805006898
S31508006ED01090DFF8100540680F90DFF80805406944
S31508006EE00E90DFF80005406A0D9028680C906868D7
S31508006EF00B90A8680A90E86809902869089068695C
S31508006F000790A8690690E8690590A86B0490DFF8D1
S31508006F10D80400684968039102212160DFF8CC147F
S31508006F200968126841EA0221DFF8C424126841EAB6
S31508006F30024102914FF0FF316162DFF8B8140A6826
S31508006F407968D20409D57268D20706D5E269D207EC
S31508006F5044BF4FF0010B41F48071DFF898241268A2
S31508006F60920409D57268520606D5E269D20744BF6B
S31508006F704FF0010B41F48041DFF878341B68012299
S31508006F805B040ED5009BD6F80CC023FA0CF3DB077E
S31508006F9007D5E369DB0704D5F36802FA03F39346DA
S31508006FA01943DFF850341B681B0410D5009BD6F82C
S31508006FB010C023FA0CF3DB0709D5E369DB0702D413
S31508006FC0E3691B0703D5336993469A401143DFF8F3
S31508006FD024241268D20306D5E269120644BF4FF08C
S31508006FE0010B41F00061796000217268D20772686E
S31508006FF048BF4FF480515206009AF36848BF41F4DF
S315080070000051DA40D207009A336948BF41F48041FB
S31508007010DA40D207E26948BF41F40041D20605D4F6
S31508007020E269920602D4E269520601D541F01001DE
S31508007030E269120648BF41F4803108400190A52054
S3150800704000F022FA0120E063E069A16B11B1616AE0
S315080070500142FAD0616A014200F0F0800020E06344
S315080070604FF0010B786840F08040786000F056FADF
S315080070700720C8F800000F20C9F8000005F0A4F89A
S315080070801898D84960601698C8F840001598C8F846
S3150800709044001498C9F84C001398C9F8500012987F
S315080070A0C9F854001198C9F85800109808600F9844
S315080070B048600E9848610D984862CB490C9828603C
S315080070C00B9868600A98A8600998E860089828618B
S315080070D0079868610698A8610598E8610498A86306
S315080070E001980860BD49039848604FF0FF30C249CF
S315080070F00860BE48BE490268B94800680968636AFC
S31508007100E569D6F810C0DDF808E042EA002040EA52
S315080071100140009980EA0E0008402B40590801F00A
S31508007120010140EA8120990801F0010140EA810045
S31508007130D90801F0010101FA0CF108437D6803F44E
S315080071407C7140EA015028437860FEF76FFF00F033
S31508007150F3F9002020609DF85C0008B100F087F97B
S315080071607868A1490968C90303D5010144BF2021EC
S315080071702162D8F84010890704D5C10144BF02210D
S31508007180C8F80C10D8F84010490704D5810144BF47
S315080071900421C8F80C10D8F84010C90704D54101D5
S315080071A044BF0121C8F80C10D9F84C1011F0E00FB3
S315080071B005D0C10503D58F4A4FF480511160D9F81F
S315080071C0501011F0E00F05D0410403D5894A4FF459
S315080071D000511160D9F8541011F0E00F08D0F16889
S315080071E020FA01F2D10703D5824A4FF48041116093
S315080071F0D9F8581011F0E00F08D0316920FA01F2D9
S31508007200D00703D57B494FF400400860BBF1000F57
S3150800721074D17A480068000570D5606880076DD516
S31508007220BAF1040F6AD070480068C00643D57148A1
S315080072300068C0063FD5012038705FE0BBF1000F3B
S315080072407FF410AF6748674980696D4A4008400077
S31508007250886140F2072C61486049C06840F0040024
S31508007260C8600121674801704FF20F011388634512
S3150800727004BF53888B4204D14CF23C3353804FF001
S31508007280010B564BDFF854C11B6843F08053CCF80A
S3150800729000300378002BFCD1BBF1000F57481CBF08
S315080072A051804FF0000B406854490004B860896863
S315080072B00843B860DCE600F0D3F8FA2190FBF1F059
S315080072C04FF47A7148432F303021B0FBF1F000219A
S315080072D039704D494A6D42F001024A650A68474BC2
S315080072E0464C5B68A46844EA0343BC68A34205D1DC
S315080072F00B689B1A1B031B0B8342F0D3786840F07C
S315080073000040786019B0BDE8F04FFFF755BD00F0B2
S31508007310C4F80446A52000F0B7F800F0FFF8FFF718
S315080073204BFD3A4D3A4F2E682868400840002860C1
S3150800733000F0FAF8D7F80080386820F04000386086
S3150800734000F0EEF8C7F800802E6000F0EDF80CB1FA
S3150800735000F08DF819B0BDE8F04F00F0EDB819B09F
S31508007360BDE8F04F40F232410FF2B000FDF768BABF
S31508007370164ACBB21360C1F307235360C1F3074122
S315080073809160002323490B601368002B04BF5368E0
S31508007390002B01D192681AB10A6842F001020A600C
S315080073A00A6842F400720A600A6842F080020A60BB
S315080073B006E519490978890141F4800141F410313B
S315080073C0D6E70000442C00200400004008BC00401A
S315080073D014A0004014A800400050004004ED00E04E
S315080073E008B400400440004000E100E008B0004056
S315080073F008B8004000E200E080E200E00C600040CF
S3150800740000000020042E00203820004094ED00E003
S315080074100080004020000040451E0020736C656512
S31508007420702E630008237F22024801880248FBF772
S3150800743061BA00BF22620208C42C00202D480068E9
S31508007440C00702D442F6E060704745F6C050704760
S3150800745080B5FFF7F3FF2849096801B9400802BD5E
S3150800746080B5FFF7EBFF400802BDFCF7FEBA2348DC
S31508007470012181604EF6BE214160012101607047FD
S315080074801F49012008607047A52805D11B484DF6FD
S31508007490AD6141600221016070471848006810F02C
S315080074A0010018BF0120704780B51649164A1020FA
S315080074B0086016491648007858B103280CBF002002
S315080074C00120106040F6510008600020FCF7DAFC45
S315080074D006E0022010604FF400600860FCF784FAAA
S315080074E00C48072101600021016410200A49086040
S315080074F0002002BD1C4000402040004000600040C3
S315080075000860004080E100E0080000400C60004090
S31508007510CC2F002014A0004000E100E072B67047AE
S3150800752000BF30BF00BF7047BFF35F8FBFF34F8FF9
S31508007530BFF36F8F7047000062B67047DFF8D0025E
S31508007540016C41F4C04141F0090101644FF6FF7135
